{"abi":[{"type":"constructor","inputs":[{"name":"_stablecoin","type":"address","internalType":"address"},{"name":"_platformWallet","type":"address","internalType":"address"},{"name":"_sablier","type":"address","internalType":"address"},{"name":"_recipients","type":"address[]","internalType":"address[]"},{"name":"_allocations","type":"uint256[]","internalType":"uint256[]"}],"stateMutability":"nonpayable"},{"type":"function","name":"donate","inputs":[{"name":"amount","type":"uint256","internalType":"uint256"}],"outputs":[],"stateMutability":"nonpayable"},{"type":"function","name":"donorList","inputs":[{"name":"","type":"uint256","internalType":"uint256"}],"outputs":[{"name":"","type":"address","internalType":"address"}],"stateMutability":"view"},{"type":"function","name":"donors","inputs":[{"name":"","type":"address","internalType":"address"}],"outputs":[{"name":"amount","type":"uint256","internalType":"uint256"},{"name":"hasVoted","type":"bool","internalType":"bool"}],"stateMutability":"view"},{"type":"function","name":"getVotingWeight","inputs":[{"name":"donor","type":"address","internalType":"address"}],"outputs":[{"name":"","type":"uint256","internalType":"uint256"}],"stateMutability":"view"},{"type":"function","name":"isCancelled","inputs":[],"outputs":[{"name":"","type":"bool","internalType":"bool"}],"stateMutability":"view"},{"type":"function","name":"isStreaming","inputs":[],"outputs":[{"name":"","type":"bool","internalType":"bool"}],"stateMutability":"view"},{"type":"function","name":"owner","inputs":[],"outputs":[{"name":"","type":"address","internalType":"address"}],"stateMutability":"view"},{"type":"function","name":"platformWallet","inputs":[],"outputs":[{"name":"","type":"address","internalType":"address"}],"stateMutability":"view"},{"type":"function","name":"recipients","inputs":[{"name":"","type":"uint256","internalType":"uint256"}],"outputs":[{"name":"wallet","type":"address","internalType":"address"},{"name":"allocation","type":"uint256","internalType":"uint256"},{"name":"streamId","type":"uint256","internalType":"uint256"}],"stateMutability":"view"},{"type":"function","name":"renounceOwnership","inputs":[],"outputs":[],"stateMutability":"nonpayable"},{"type":"function","name":"rescueToken","inputs":[{"name":"token","type":"address","internalType":"contract IERC20"}],"outputs":[],"stateMutability":"nonpayable"},{"type":"function","name":"sablier","inputs":[],"outputs":[{"name":"","type":"address","internalType":"contract ISablierV2LockupLinear"}],"stateMutability":"view"},{"type":"function","name":"stablecoin","inputs":[],"outputs":[{"name":"","type":"address","internalType":"contract IERC20"}],"stateMutability":"view"},{"type":"function","name":"startStreaming","inputs":[],"outputs":[],"stateMutability":"nonpayable"},{"type":"function","name":"totalRaised","inputs":[],"outputs":[{"name":"","type":"uint256","internalType":"uint256"}],"stateMutability":"view"},{"type":"function","name":"totalVotingWeight","inputs":[],"outputs":[{"name":"","type":"uint256","internalType":"uint256"}],"stateMutability":"view"},{"type":"function","name":"transferOwnership","inputs":[{"name":"newOwner","type":"address","internalType":"address"}],"outputs":[],"stateMutability":"nonpayable"},{"type":"function","name":"vote","inputs":[],"outputs":[],"stateMutability":"nonpayable"},{"type":"event","name":"DonationReceived","inputs":[{"name":"donor","type":"address","indexed":true,"internalType":"address"},{"name":"amount","type":"uint256","indexed":false,"internalType":"uint256"}],"anonymous":false},{"type":"event","name":"DonorRefundCalculated","inputs":[{"name":"donor","type":"address","indexed":true,"internalType":"address"},{"name":"donationAmount","type":"uint256","indexed":false,"internalType":"uint256"},{"name":"refundAmount","type":"uint256","indexed":false,"internalType":"uint256"}],"anonymous":false},{"type":"event","name":"OwnershipTransferred","inputs":[{"name":"previousOwner","type":"address","indexed":true,"internalType":"address"},{"name":"newOwner","type":"address","indexed":true,"internalType":"address"}],"anonymous":false},{"type":"event","name":"RefundCalculation","inputs":[{"name":"initialBalance","type":"uint256","indexed":false,"internalType":"uint256"},{"name":"finalBalance","type":"uint256","indexed":false,"internalType":"uint256"},{"name":"totalVested","type":"uint256","indexed":false,"internalType":"uint256"},{"name":"refundableAmount","type":"uint256","indexed":false,"internalType":"uint256"}],"anonymous":false},{"type":"event","name":"RefundIssued","inputs":[{"name":"donor","type":"address","indexed":true,"internalType":"address"},{"name":"amount","type":"uint256","indexed":false,"internalType":"uint256"}],"anonymous":false},{"type":"event","name":"StreamCancellationAttempt","inputs":[{"name":"streamId","type":"uint256","indexed":true,"internalType":"uint256"},{"name":"success","type":"bool","indexed":false,"internalType":"bool"}],"anonymous":false},{"type":"event","name":"StreamCancellationInitiated","inputs":[{"name":"totalVotingWeight","type":"uint256","indexed":false,"internalType":"uint256"}],"anonymous":false},{"type":"event","name":"StreamStarted","inputs":[{"name":"recipient","type":"address","indexed":true,"internalType":"address"},{"name":"streamId","type":"uint256","indexed":false,"internalType":"uint256"},{"name":"amount","type":"uint256","indexed":false,"internalType":"uint256"}],"anonymous":false},{"type":"event","name":"StreamsCancelled","inputs":[],"anonymous":false},{"type":"event","name":"VestedAmountCalculated","inputs":[{"name":"streamId","type":"uint256","indexed":true,"internalType":"uint256"},{"name":"vestedAmount","type":"uint256","indexed":false,"internalType":"uint256"}],"anonymous":false},{"type":"event","name":"VoteCast","inputs":[{"name":"donor","type":"address","indexed":true,"internalType":"address"},{"name":"weight","type":"uint256","indexed":false,"internalType":"uint256"}],"anonymous":false},{"type":"error","name":"OwnableInvalidOwner","inputs":[{"name":"owner","type":"address","internalType":"address"}]},{"type":"error","name":"OwnableUnauthorizedAccount","inputs":[{"name":"account","type":"address","internalType":"address"}]}],"bytecode":{"object":"0x60e060405234801561001057600080fd5b506040516120ec3803806120ec83398101604081905261002f91610479565b6001600055338061005b57604051631e4fbdf760e01b8152600060048201526024015b60405180910390fd5b61006481610320565b5080518251146100b65760405162461bcd60e51b815260206004820152601e60248201527f496e76616c696420726563697069656e74732f616c6c6f636174696f6e7300006044820152606401610052565b60008251116100f75760405162461bcd60e51b815260206004820152600d60248201526c4e6f20726563697069656e747360981b6044820152606401610052565b6001600160a01b0380861660805284811660a052831660c0526000805b83518110156102c35760006001600160a01b031684828151811061013a5761013a610575565b60200260200101516001600160a01b03160361018c5760405162461bcd60e51b8152602060048201526011602482015270125b9d985b1a59081c9958da5c1a595b9d607a1b6044820152606401610052565b60008382815181106101a0576101a0610575565b6020026020010151116101ea5760405162461bcd60e51b815260206004820152601260248201527124b73b30b634b21030b63637b1b0ba34b7b760711b6044820152606401610052565b6102168382815181106101ff576101ff610575565b60200260200101518361037260201b90919060201c565b91506004604051806060016040528086848151811061023757610237610575565b60200260200101516001600160a01b0316815260200185848151811061025f5761025f610575565b6020908102919091018101518252600091810182905283546001808201865594835291819020835160039093020180546001600160a01b0319166001600160a01b039093169290921782558201518184015560409091015160029091015501610114565b5080612710146103155760405162461bcd60e51b815260206004820152601d60248201527f546f74616c20616c6c6f636174696f6e206d75737420626520313030250000006044820152606401610052565b5050505050506105ac565b600180546001600160a01b038381166001600160a01b0319831681179093556040519116919082907f8be0079c531659141344cd1fd0a4f28419497f9722a3daafe3b4186f6b6457e090600090a35050565b600061037e828461058b565b90505b92915050565b80516001600160a01b038116811461039e57600080fd5b919050565b634e487b7160e01b600052604160045260246000fd5b604051601f8201601f191681016001600160401b03811182821017156103e1576103e16103a3565b604052919050565b60006001600160401b03821115610402576104026103a3565b5060051b60200190565b600082601f83011261041d57600080fd5b815161043061042b826103e9565b6103b9565b8082825260208201915060208360051b86010192508583111561045257600080fd5b602085015b8381101561046f578051835260209283019201610457565b5095945050505050565b600080600080600060a0868803121561049157600080fd5b61049a86610387565b94506104a860208701610387565b93506104b660408701610387565b60608701519093506001600160401b038111156104d257600080fd5b8601601f810188136104e357600080fd5b80516104f161042b826103e9565b8082825260208201915060208360051b85010192508a83111561051357600080fd5b6020840193505b8284101561053c5761052b84610387565b82526020938401939091019061051a565b60808a0151909550925050506001600160401b0381111561055c57600080fd5b6105688882890161040c565b9150509295509295909350565b634e487b7160e01b600052603260045260246000fd5b8082018082111561038157634e487b7160e01b600052601160045260246000fd5b60805160a05160c051611ab6610636600039600081816101350152818161092401528181610aa001528181610fd301526111ac0152600081816102db015261081f01526000818161028101528181610307015281816108510152818161095601528181610a2601528181610ca501528181610f290152818161135d015261152e0152611ab66000f3fe608060405234801561001057600080fd5b50600436106101165760003560e01c8063ca0cdea8116100a2578063e9cbd82211610071578063e9cbd8221461027c578063f14faf6f146102a3578063f2fde38b146102b6578063f8ad1c40146102c9578063fa2af9da146102d657600080fd5b8063ca0cdea8146101ea578063d1bc76a114610229578063d5da24b914610261578063d865f1d61461027457600080fd5b80636de27d27116100e95780636de27d271461018f578063715018a6146101a65780638da5cb5b146101ae57806395ee1221146101bf578063c5c4744c146101e157600080fd5b80634460d3cf1461011b578063482879aa146101305780635eed3dcb14610174578063632a9a5214610187575b600080fd5b61012e6101293660046116b9565b6102fd565b005b6101577f000000000000000000000000000000000000000000000000000000000000000081565b6040516001600160a01b0390911681526020015b60405180910390f35b6101576101823660046116d6565b6104d3565b61012e6104fd565b61019860065481565b60405190815260200161016b565b61012e6106aa565b6001546001600160a01b0316610157565b6007546101d190610100900460ff1681565b604051901515815260200161016b565b61019860055481565b6102146101f83660046116b9565b6002602052600090815260409020805460019091015460ff1682565b6040805192835290151560208301520161016b565b61023c6102373660046116d6565b6106bc565b604080516001600160a01b03909416845260208401929092529082015260600161016b565b61019861026f3660046116b9565b6106f9565b61012e610746565b6101577f000000000000000000000000000000000000000000000000000000000000000081565b61012e6102b13660046116d6565b610bd3565b61012e6102c43660046116b9565b610df0565b6007546101d19060ff1681565b6101577f000000000000000000000000000000000000000000000000000000000000000081565b610305610e2b565b7f00000000000000000000000000000000000000000000000000000000000000006001600160a01b0316816001600160a01b03160361038b5760405162461bcd60e51b815260206004820152601a60248201527f43616e6e6f74207265736375652073747265616d20746f6b656e00000000000060448201526064015b60405180910390fd5b6040516370a0823160e01b81523060048201526000906001600160a01b038316906370a0823190602401602060405180830381865afa1580156103d2573d6000803e3d6000fd5b505050506040513d601f19601f820116820180604052508101906103f691906116ef565b90506000811161043c5760405162461bcd60e51b81526020600482015260116024820152704e6f7468696e6720746f2072657363756560781b6044820152606401610382565b816001600160a01b031663a9059cbb61045d6001546001600160a01b031690565b6040516001600160e01b031960e084901b1681526001600160a01b039091166004820152602481018490526044016020604051808303816000875af11580156104aa573d6000803e3d6000fd5b505050506040513d601f19601f820116820180604052508101906104ce919061171d565b505050565b600381815481106104e357600080fd5b6000918252602090912001546001600160a01b0316905081565b610505610e58565b60075460ff16801561051f5750600754610100900460ff16155b61053b5760405162461bcd60e51b815260040161038290611738565b336000908152600260205260409020546105855760405162461bcd60e51b815260206004820152600b60248201526a2737ba1030903237b737b960a91b6044820152606401610382565b3360009081526002602052604090206001015460ff16156105d85760405162461bcd60e51b815260206004820152600d60248201526c105b1c9958591e481d9bdd1959609a1b6044820152606401610382565b60006105e3336106f9565b6006549091506105f39082610eb1565b60065533600081815260026020526040908190206001908101805460ff19169091179055517fa36cc2bebb74db33e9f88110a07ef56e1b31b24b4c4f51b54b1664266e29f45b906106479084815260200190565b60405180910390a26113886006541061069d577fcd6f45e38b06f789d26958cc6465b19b27c48f43c5a6554dbc90aa5ad8dad1a160065460405161068d91815260200190565b60405180910390a161069d610ec4565b506106a86001600055565b565b6106b2610e2b565b6106a8600061162e565b600481815481106106cc57600080fd5b60009182526020909120600390910201805460018201546002909201546001600160a01b03909116925083565b600060055460000361070d57506000919050565b6005546001600160a01b038316600090815260026020526040902054610740919061073a90612710611680565b9061168c565b92915050565b61074e610e2b565b610756610e58565b60075460ff161580156107715750600754610100900460ff16155b61078d5760405162461bcd60e51b815260040161038290611738565b6000600554116107d15760405162461bcd60e51b815260206004820152600f60248201526e139bc8199d5b991cc81c985a5cd959608a1b6044820152606401610382565b60006107ef61271061073a606460055461168090919063ffffffff16565b905060006108088260055461169890919063ffffffff16565b60405163a9059cbb60e01b81526001600160a01b037f000000000000000000000000000000000000000000000000000000000000000081166004830152602482018590529192507f00000000000000000000000000000000000000000000000000000000000000009091169063a9059cbb906044016020604051808303816000875af115801561089c573d6000803e3d6000fd5b505050506040513d601f19601f820116820180604052508101906108c0919061171d565b5060005b600454811015610bb957600061090d61271061073a600485815481106108ec576108ec61175f565b9060005260206000209060030201600101548661168090919063ffffffff16565b60405163095ea7b360e01b81526001600160a01b037f000000000000000000000000000000000000000000000000000000000000000081166004830152602482018390529192507f00000000000000000000000000000000000000000000000000000000000000009091169063095ea7b3906044016020604051808303816000875af11580156109a1573d6000803e3d6000fd5b505050506040513d601f19601f820116820180604052508101906109c5919061171d565b506000604051806101000160405280306001600160a01b03168152602001600485815481106109f6576109f661175f565b600091825260208083206003909202909101546001600160a01b0390811684526001600160801b038716848301527f0000000000000000000000000000000000000000000000000000000000000000811660408086019190915260016060860152608085018490528051808201825284815262278d008185015260a08601528051808201825284815292830184905260c0909401919091529151632ac59f3360e21b8152929350917f00000000000000000000000000000000000000000000000000000000000000009091169063ab167ccc90610ad7908590600401611775565b6020604051808303816000875af1158015610af6573d6000803e3d6000fd5b505050506040513d601f19601f82011682018060405250810190610b1a91906116ef565b90508060048581548110610b3057610b3061175f565b90600052602060002090600302016002018190555060048481548110610b5857610b5861175f565b600091825260209182902060039091020154604080518481529283018690526001600160a01b03909116917fa62b8b79cdd1fbbcd137b5ac2c6b2d503face9d66f7ec545c345938c7d53437b910160405180910390a25050506001016108c4565b50506007805460ff19166001179055506106a86001600055565b610bdb610e58565b60075460ff16158015610bf65750600754610100900460ff16155b610c425760405162461bcd60e51b815260206004820152601c60248201527f46756e64206e6f7420616363657074696e6720646f6e6174696f6e73000000006044820152606401610382565b60008111610c835760405162461bcd60e51b815260206004820152600e60248201526d125b9d985b1a5908185b5bdd5b9d60921b6044820152606401610382565b6040516323b872dd60e01b8152336004820152306024820152604481018290527f00000000000000000000000000000000000000000000000000000000000000006001600160a01b0316906323b872dd906064016020604051808303816000875af1158015610cf6573d6000803e3d6000fd5b505050506040513d601f19601f82011682018060405250810190610d1a919061171d565b50336000908152600260205260408120549003610d7457600380546001810182556000919091527fc2575a0e9e593c00f959f8c92f12db2869c3395a3b0502d05e2516446f71f85b0180546001600160a01b031916331790555b33600090815260026020526040902054610d8e9082610eb1565b33600090815260026020526040902055600554610dab9082610eb1565b60055560405181815233907f264f630d9efa0d07053a31163641d9fcc0adafc9d9e76f1c37c2ce3a558d2c529060200160405180910390a2610ded6001600055565b50565b610df8610e2b565b6001600160a01b038116610e2257604051631e4fbdf760e01b815260006004820152602401610382565b610ded8161162e565b6001546001600160a01b031633146106a85760405163118cdaa760e01b8152336004820152602401610382565b600260005403610eaa5760405162461bcd60e51b815260206004820152601f60248201527f5265656e7472616e637947756172643a207265656e7472616e742063616c6c006044820152606401610382565b6002600055565b6000610ebd8284611842565b9392505050565b60075460ff168015610ede5750600754610100900460ff16155b610efa5760405162461bcd60e51b815260040161038290611738565b6007805461ffff19166101001790556040516370a0823160e01b81523060048201526000906001600160a01b037f000000000000000000000000000000000000000000000000000000000000000016906370a0823190602401602060405180830381865afa158015610f70573d6000803e3d6000fd5b505050506040513d601f19601f82011682018060405250810190610f9491906116ef565b90506000805b60045481101561116f57600060048281548110610fb957610fb961175f565b9060005260206000209060030201600201541115611167577f00000000000000000000000000000000000000000000000000000000000000006001600160a01b031663894e9a0d600483815481106110135761101361175f565b9060005260206000209060030201600201546040518263ffffffff1660e01b815260040161104391815260200190565b6101c060405180830381865afa92505050801561107d575060408051601f3d908101601f1916820190925261107a91810190611941565b60015b6110e757600481815481106110945761109461175f565b9060005260206000209060030201600201547faef8ca6c5d731d7cc95bcf35566aa814c526f2d319a18da0e3929b15643238c460006040516110da911515815260200190565b60405180910390a2611167565b610140810151602001516001600160801b03166111048482610eb1565b9350600483815481106111195761111961175f565b9060005260206000209060030201600201547fc36e6dc23dd1c3bd7b1d5c696cf7e5b93dae34b855772f93f7f2010bac34eff58260405161115c91815260200190565b60405180910390a250505b600101610f9a565b5060005b60045481101561131b576000600482815481106111925761119261175f565b9060005260206000209060030201600201541115611313577f00000000000000000000000000000000000000000000000000000000000000006001600160a01b03166340e58ee5600483815481106111ec576111ec61175f565b9060005260206000209060030201600201546040518263ffffffff1660e01b815260040161121c91815260200190565b600060405180830381600087803b15801561123657600080fd5b505af1925050508015611247575060015b6112b1576004818154811061125e5761125e61175f565b9060005260206000209060030201600201547faef8ca6c5d731d7cc95bcf35566aa814c526f2d319a18da0e3929b15643238c460006040516112a4911515815260200190565b60405180910390a2611313565b600481815481106112c4576112c461175f565b9060005260206000209060030201600201547faef8ca6c5d731d7cc95bcf35566aa814c526f2d319a18da0e3929b15643238c4600160405161130a911515815260200190565b60405180910390a25b600101611173565b506040517f585a08ec608f045f58d45a2e0e91683fb29553b00b4b951eb61d38e3887dac3a90600090a16040516370a0823160e01b81523060048201526000907f00000000000000000000000000000000000000000000000000000000000000006001600160a01b0316906370a0823190602401602060405180830381865afa1580156113ac573d6000803e3d6000fd5b505050506040513d601f19601f820116820180604052508101906113d091906116ef565b905060006113de8285611698565b6040805186815260208101859052908101859052606081018290529091507e2708535d2c1ac564fbafe945a7311c39151c7d6cf573af1cd48313120d0f109060800160405180910390a180156116285760005b600354811015611626576000600382815481106114505761145061175f565b60009182526020808320909101546001600160a01b031680835260029091526040909120549091501561161d576005546001600160a01b03821660009081526002602052604081205490916114aa9161073a908790611680565b6001600160a01b03831660008181526002602090815260409182902054825190815290810184905292935090917f3030ccdee1f915b0e37149f5e1421cc48aee6c3f04f9b2a40380518c0d7918af910160405180910390a2801561161b5760405163a9059cbb60e01b81526001600160a01b038381166004830152602482018390527f0000000000000000000000000000000000000000000000000000000000000000169063a9059cbb906044016020604051808303816000875af1158015611577573d6000803e3d6000fd5b505050506040513d601f19601f8201168201806040525081019061159b919061171d565b6115d75760405162461bcd60e51b815260206004820152600d60248201526c1499599d5b990819985a5b1959609a1b6044820152606401610382565b816001600160a01b03167fa171b6942063c6f2800ce40a780edce37baa2b618571b11eedd1e69e626e7d768260405161161291815260200190565b60405180910390a25b505b50600101611431565b505b50505050565b600180546001600160a01b038381166001600160a01b0319831681179093556040519116919082907f8be0079c531659141344cd1fd0a4f28419497f9722a3daafe3b4186f6b6457e090600090a35050565b6000610ebd8284611a34565b6000610ebd8284611a4b565b6000610ebd8284611a6d565b6001600160a01b0381168114610ded57600080fd5b6000602082840312156116cb57600080fd5b8135610ebd816116a4565b6000602082840312156116e857600080fd5b5035919050565b60006020828403121561170157600080fd5b5051919050565b8051801515811461171857600080fd5b919050565b60006020828403121561172f57600080fd5b610ebd82611708565b6020808252600d908201526c496e76616c696420737461746560981b604082015260600190565b634e487b7160e01b600052603260045260246000fd5b81516001600160a01b0390811682526020808401518216908301526040808401516001600160801b031690830152606080840151918216908301526101408201905060808301516117ca608084018215159052565b5060a08301516117de60a084018215159052565b5060c083015161180560c0840182805164ffffffffff908116835260209182015116910152565b5060e0929092015180516001600160a01b0316610100830152602001516101209091015290565b634e487b7160e01b600052601160045260246000fd5b808201808211156107405761074061182c565b604051610180810167ffffffffffffffff8111828210171561188757634e487b7160e01b600052604160045260246000fd5b60405290565b8051611718816116a4565b805164ffffffffff8116811461171857600080fd5b80516001600160801b038116811461171857600080fd5b6000606082840312156118d657600080fd5b6040516060810167ffffffffffffffff8111828210171561190757634e487b7160e01b600052604160045260246000fd5b604052905080611916836118ad565b8152611924602084016118ad565b6020820152611935604084016118ad565b60408201525092915050565b60006101c082840312801561195557600080fd5b5061195e611855565b6119678361188d565b81526119756020840161188d565b602082015261198660408401611898565b604082015261199760608401611708565b60608201526119a860808401611708565b60808201526119b960a0840161188d565b60a08201526119ca60c08401611898565b60c08201526119db60e08401611708565b60e08201526119ed6101008401611708565b610100820152611a006101208401611708565b610120820152611a148461014085016118c4565b610140820152611a276101a08401611898565b6101608201529392505050565b80820281158282048414176107405761074061182c565b600082611a6857634e487b7160e01b600052601260045260246000fd5b500490565b818103818111156107405761074061182c56fea264697066735822122071c0b50aaac41d95400b6eea69e462f4f6b242abacc70341d6df708e8446bbf864736f6c634300081c0033","linkReferences":{}},"methodIdentifiers":{"donate(uint256)":"f14faf6f","donorList(uint256)":"5eed3dcb","donors(address)":"ca0cdea8","getVotingWeight(address)":"d5da24b9","isCancelled()":"95ee1221","isStreaming()":"f8ad1c40","owner()":"8da5cb5b","platformWallet()":"fa2af9da","recipients(uint256)":"d1bc76a1","renounceOwnership()":"715018a6","rescueToken(address)":"4460d3cf","sablier()":"482879aa","stablecoin()":"e9cbd822","startStreaming()":"d865f1d6","totalRaised()":"c5c4744c","totalVotingWeight()":"6de27d27","transferOwnership(address)":"f2fde38b","vote()":"632a9a52"},"id":0}