{"abi":[{"type":"constructor","inputs":[{"name":"_stablecoin","type":"address","internalType":"address"},{"name":"_platformWallet","type":"address","internalType":"address"},{"name":"_sablier","type":"address","internalType":"address"},{"name":"_recipients","type":"address[]","internalType":"address[]"},{"name":"_allocations","type":"uint256[]","internalType":"uint256[]"}],"stateMutability":"nonpayable"},{"type":"function","name":"donate","inputs":[{"name":"amount","type":"uint256","internalType":"uint256"}],"outputs":[],"stateMutability":"nonpayable"},{"type":"function","name":"donorList","inputs":[{"name":"","type":"uint256","internalType":"uint256"}],"outputs":[{"name":"","type":"address","internalType":"address"}],"stateMutability":"view"},{"type":"function","name":"donors","inputs":[{"name":"","type":"address","internalType":"address"}],"outputs":[{"name":"amount","type":"uint256","internalType":"uint256"},{"name":"hasVoted","type":"bool","internalType":"bool"}],"stateMutability":"view"},{"type":"function","name":"getVotingWeight","inputs":[{"name":"donor","type":"address","internalType":"address"}],"outputs":[{"name":"","type":"uint256","internalType":"uint256"}],"stateMutability":"view"},{"type":"function","name":"isCancelled","inputs":[],"outputs":[{"name":"","type":"bool","internalType":"bool"}],"stateMutability":"view"},{"type":"function","name":"isStreaming","inputs":[],"outputs":[{"name":"","type":"bool","internalType":"bool"}],"stateMutability":"view"},{"type":"function","name":"owner","inputs":[],"outputs":[{"name":"","type":"address","internalType":"address"}],"stateMutability":"view"},{"type":"function","name":"platformWallet","inputs":[],"outputs":[{"name":"","type":"address","internalType":"address"}],"stateMutability":"view"},{"type":"function","name":"recipients","inputs":[{"name":"","type":"uint256","internalType":"uint256"}],"outputs":[{"name":"wallet","type":"address","internalType":"address"},{"name":"allocation","type":"uint256","internalType":"uint256"},{"name":"streamId","type":"uint256","internalType":"uint256"}],"stateMutability":"view"},{"type":"function","name":"renounceOwnership","inputs":[],"outputs":[],"stateMutability":"nonpayable"},{"type":"function","name":"rescueToken","inputs":[{"name":"token","type":"address","internalType":"contract IERC20"}],"outputs":[],"stateMutability":"nonpayable"},{"type":"function","name":"sablier","inputs":[],"outputs":[{"name":"","type":"address","internalType":"contract ISablierV2LockupLinear"}],"stateMutability":"view"},{"type":"function","name":"stablecoin","inputs":[],"outputs":[{"name":"","type":"address","internalType":"contract IERC20"}],"stateMutability":"view"},{"type":"function","name":"startStreaming","inputs":[],"outputs":[],"stateMutability":"nonpayable"},{"type":"function","name":"totalRaised","inputs":[],"outputs":[{"name":"","type":"uint256","internalType":"uint256"}],"stateMutability":"view"},{"type":"function","name":"totalVotingWeight","inputs":[],"outputs":[{"name":"","type":"uint256","internalType":"uint256"}],"stateMutability":"view"},{"type":"function","name":"transferOwnership","inputs":[{"name":"newOwner","type":"address","internalType":"address"}],"outputs":[],"stateMutability":"nonpayable"},{"type":"function","name":"vote","inputs":[],"outputs":[],"stateMutability":"nonpayable"},{"type":"event","name":"DonationReceived","inputs":[{"name":"donor","type":"address","indexed":true,"internalType":"address"},{"name":"amount","type":"uint256","indexed":false,"internalType":"uint256"}],"anonymous":false},{"type":"event","name":"OwnershipTransferred","inputs":[{"name":"previousOwner","type":"address","indexed":true,"internalType":"address"},{"name":"newOwner","type":"address","indexed":true,"internalType":"address"}],"anonymous":false},{"type":"event","name":"RefundIssued","inputs":[{"name":"donor","type":"address","indexed":true,"internalType":"address"},{"name":"amount","type":"uint256","indexed":false,"internalType":"uint256"}],"anonymous":false},{"type":"event","name":"StreamStarted","inputs":[{"name":"recipient","type":"address","indexed":true,"internalType":"address"},{"name":"streamId","type":"uint256","indexed":false,"internalType":"uint256"},{"name":"amount","type":"uint256","indexed":false,"internalType":"uint256"}],"anonymous":false},{"type":"event","name":"StreamsCancelled","inputs":[],"anonymous":false},{"type":"event","name":"VoteCast","inputs":[{"name":"donor","type":"address","indexed":true,"internalType":"address"},{"name":"weight","type":"uint256","indexed":false,"internalType":"uint256"}],"anonymous":false},{"type":"error","name":"OwnableInvalidOwner","inputs":[{"name":"owner","type":"address","internalType":"address"}]},{"type":"error","name":"OwnableUnauthorizedAccount","inputs":[{"name":"account","type":"address","internalType":"address"}]}],"bytecode":{"object":"0x60e060405234801561001057600080fd5b50604051611d31380380611d3183398101604081905261002f91610479565b6001600055338061005b57604051631e4fbdf760e01b8152600060048201526024015b60405180910390fd5b61006481610320565b5080518251146100b65760405162461bcd60e51b815260206004820152601e60248201527f496e76616c696420726563697069656e74732f616c6c6f636174696f6e7300006044820152606401610052565b60008251116100f75760405162461bcd60e51b815260206004820152600d60248201526c4e6f20726563697069656e747360981b6044820152606401610052565b6001600160a01b0380861660805284811660a052831660c0526000805b83518110156102c35760006001600160a01b031684828151811061013a5761013a610575565b60200260200101516001600160a01b03160361018c5760405162461bcd60e51b8152602060048201526011602482015270125b9d985b1a59081c9958da5c1a595b9d607a1b6044820152606401610052565b60008382815181106101a0576101a0610575565b6020026020010151116101ea5760405162461bcd60e51b815260206004820152601260248201527124b73b30b634b21030b63637b1b0ba34b7b760711b6044820152606401610052565b6102168382815181106101ff576101ff610575565b60200260200101518361037260201b90919060201c565b91506004604051806060016040528086848151811061023757610237610575565b60200260200101516001600160a01b0316815260200185848151811061025f5761025f610575565b6020908102919091018101518252600091810182905283546001808201865594835291819020835160039093020180546001600160a01b0319166001600160a01b039093169290921782558201518184015560409091015160029091015501610114565b5080612710146103155760405162461bcd60e51b815260206004820152601d60248201527f546f74616c20616c6c6f636174696f6e206d75737420626520313030250000006044820152606401610052565b5050505050506105ac565b600180546001600160a01b038381166001600160a01b0319831681179093556040519116919082907f8be0079c531659141344cd1fd0a4f28419497f9722a3daafe3b4186f6b6457e090600090a35050565b600061037e828461058b565b90505b92915050565b80516001600160a01b038116811461039e57600080fd5b919050565b634e487b7160e01b600052604160045260246000fd5b604051601f8201601f191681016001600160401b03811182821017156103e1576103e16103a3565b604052919050565b60006001600160401b03821115610402576104026103a3565b5060051b60200190565b600082601f83011261041d57600080fd5b815161043061042b826103e9565b6103b9565b8082825260208201915060208360051b86010192508583111561045257600080fd5b602085015b8381101561046f578051835260209283019201610457565b5095945050505050565b600080600080600060a0868803121561049157600080fd5b61049a86610387565b94506104a860208701610387565b93506104b660408701610387565b60608701519093506001600160401b038111156104d257600080fd5b8601601f810188136104e357600080fd5b80516104f161042b826103e9565b8082825260208201915060208360051b85010192508a83111561051357600080fd5b6020840193505b8284101561053c5761052b84610387565b82526020938401939091019061051a565b60808a0151909550925050506001600160401b0381111561055c57600080fd5b6105688882890161040c565b9150509295509295909350565b634e487b7160e01b600052603260045260246000fd5b8082018082111561038157634e487b7160e01b600052601160045260246000fd5b60805160a05160c05161170961062860003960008181610135015281816108e901528181610a6501528181610efe0152610fde0152600081816102db01526107e401526000818161028101528181610307015281816108160152818161091b015281816109eb01528181610c6a015261118501526117096000f3fe608060405234801561001057600080fd5b50600436106101165760003560e01c8063ca0cdea8116100a2578063e9cbd82211610071578063e9cbd8221461027c578063f14faf6f146102a3578063f2fde38b146102b6578063f8ad1c40146102c9578063fa2af9da146102d657600080fd5b8063ca0cdea8146101ea578063d1bc76a114610229578063d5da24b914610261578063d865f1d61461027457600080fd5b80636de27d27116100e95780636de27d271461018f578063715018a6146101a65780638da5cb5b146101ae57806395ee1221146101bf578063c5c4744c146101e157600080fd5b80634460d3cf1461011b578063482879aa146101305780635eed3dcb14610174578063632a9a5214610187575b600080fd5b61012e61012936600461130c565b6102fd565b005b6101577f000000000000000000000000000000000000000000000000000000000000000081565b6040516001600160a01b0390911681526020015b60405180910390f35b610157610182366004611329565b6104d3565b61012e6104fd565b61019860065481565b60405190815260200161016b565b61012e61066f565b6001546001600160a01b0316610157565b6007546101d190610100900460ff1681565b604051901515815260200161016b565b61019860055481565b6102146101f836600461130c565b6002602052600090815260409020805460019091015460ff1682565b6040805192835290151560208301520161016b565b61023c610237366004611329565b610681565b604080516001600160a01b03909416845260208401929092529082015260600161016b565b61019861026f36600461130c565b6106be565b61012e61070b565b6101577f000000000000000000000000000000000000000000000000000000000000000081565b61012e6102b1366004611329565b610b98565b61012e6102c436600461130c565b610db5565b6007546101d19060ff1681565b6101577f000000000000000000000000000000000000000000000000000000000000000081565b610305610df0565b7f00000000000000000000000000000000000000000000000000000000000000006001600160a01b0316816001600160a01b03160361038b5760405162461bcd60e51b815260206004820152601a60248201527f43616e6e6f74207265736375652073747265616d20746f6b656e00000000000060448201526064015b60405180910390fd5b6040516370a0823160e01b81523060048201526000906001600160a01b038316906370a0823190602401602060405180830381865afa1580156103d2573d6000803e3d6000fd5b505050506040513d601f19601f820116820180604052508101906103f69190611342565b90506000811161043c5760405162461bcd60e51b81526020600482015260116024820152704e6f7468696e6720746f2072657363756560781b6044820152606401610382565b816001600160a01b031663a9059cbb61045d6001546001600160a01b031690565b6040516001600160e01b031960e084901b1681526001600160a01b039091166004820152602481018490526044016020604051808303816000875af11580156104aa573d6000803e3d6000fd5b505050506040513d601f19601f820116820180604052508101906104ce9190611370565b505050565b600381815481106104e357600080fd5b6000918252602090912001546001600160a01b0316905081565b610505610e1d565b60075460ff16801561051f5750600754610100900460ff16155b61053b5760405162461bcd60e51b81526004016103829061138b565b336000908152600260205260409020546105855760405162461bcd60e51b815260206004820152600b60248201526a2737ba1030903237b737b960a91b6044820152606401610382565b3360009081526002602052604090206001015460ff16156105d85760405162461bcd60e51b815260206004820152600d60248201526c105b1c9958591e481d9bdd1959609a1b6044820152606401610382565b60006105e3336106be565b6006549091506105f39082610e76565b60065533600081815260026020526040908190206001908101805460ff19169091179055517fa36cc2bebb74db33e9f88110a07ef56e1b31b24b4c4f51b54b1664266e29f45b906106479084815260200190565b60405180910390a26113886006541061066257610662610e89565b5061066d6001600055565b565b610677610df0565b61066d6000611281565b6004818154811061069157600080fd5b60009182526020909120600390910201805460018201546002909201546001600160a01b03909116925083565b60006005546000036106d257506000919050565b6005546001600160a01b03831660009081526002602052604090205461070591906106ff906127106112d3565b906112df565b92915050565b610713610df0565b61071b610e1d565b60075460ff161580156107365750600754610100900460ff16155b6107525760405162461bcd60e51b81526004016103829061138b565b6000600554116107965760405162461bcd60e51b815260206004820152600f60248201526e139bc8199d5b991cc81c985a5cd959608a1b6044820152606401610382565b60006107b46127106106ff60646005546112d390919063ffffffff16565b905060006107cd826005546112eb90919063ffffffff16565b60405163a9059cbb60e01b81526001600160a01b037f000000000000000000000000000000000000000000000000000000000000000081166004830152602482018590529192507f00000000000000000000000000000000000000000000000000000000000000009091169063a9059cbb906044016020604051808303816000875af1158015610861573d6000803e3d6000fd5b505050506040513d601f19601f820116820180604052508101906108859190611370565b5060005b600454811015610b7e5760006108d26127106106ff600485815481106108b1576108b16113b2565b906000526020600020906003020160010154866112d390919063ffffffff16565b60405163095ea7b360e01b81526001600160a01b037f000000000000000000000000000000000000000000000000000000000000000081166004830152602482018390529192507f00000000000000000000000000000000000000000000000000000000000000009091169063095ea7b3906044016020604051808303816000875af1158015610966573d6000803e3d6000fd5b505050506040513d601f19601f8201168201806040525081019061098a9190611370565b506000604051806101000160405280306001600160a01b03168152602001600485815481106109bb576109bb6113b2565b600091825260208083206003909202909101546001600160a01b0390811684526001600160801b038716848301527f0000000000000000000000000000000000000000000000000000000000000000811660408086019190915260016060860152608085018490528051808201825284815262278d008185015260a08601528051808201825284815292830184905260c0909401919091529151632ac59f3360e21b8152929350917f00000000000000000000000000000000000000000000000000000000000000009091169063ab167ccc90610a9c9085906004016113c8565b6020604051808303816000875af1158015610abb573d6000803e3d6000fd5b505050506040513d601f19601f82011682018060405250810190610adf9190611342565b90508060048581548110610af557610af56113b2565b90600052602060002090600302016002018190555060048481548110610b1d57610b1d6113b2565b600091825260209182902060039091020154604080518481529283018690526001600160a01b03909116917fa62b8b79cdd1fbbcd137b5ac2c6b2d503face9d66f7ec545c345938c7d53437b910160405180910390a2505050600101610889565b50506007805460ff191660011790555061066d6001600055565b610ba0610e1d565b60075460ff16158015610bbb5750600754610100900460ff16155b610c075760405162461bcd60e51b815260206004820152601c60248201527f46756e64206e6f7420616363657074696e6720646f6e6174696f6e73000000006044820152606401610382565b60008111610c485760405162461bcd60e51b815260206004820152600e60248201526d125b9d985b1a5908185b5bdd5b9d60921b6044820152606401610382565b6040516323b872dd60e01b8152336004820152306024820152604481018290527f00000000000000000000000000000000000000000000000000000000000000006001600160a01b0316906323b872dd906064016020604051808303816000875af1158015610cbb573d6000803e3d6000fd5b505050506040513d601f19601f82011682018060405250810190610cdf9190611370565b50336000908152600260205260408120549003610d3957600380546001810182556000919091527fc2575a0e9e593c00f959f8c92f12db2869c3395a3b0502d05e2516446f71f85b0180546001600160a01b031916331790555b33600090815260026020526040902054610d539082610e76565b33600090815260026020526040902055600554610d709082610e76565b60055560405181815233907f264f630d9efa0d07053a31163641d9fcc0adafc9d9e76f1c37c2ce3a558d2c529060200160405180910390a2610db26001600055565b50565b610dbd610df0565b6001600160a01b038116610de757604051631e4fbdf760e01b815260006004820152602401610382565b610db281611281565b6001546001600160a01b0316331461066d5760405163118cdaa760e01b8152336004820152602401610382565b600260005403610e6f5760405162461bcd60e51b815260206004820152601f60248201527f5265656e7472616e637947756172643a207265656e7472616e742063616c6c006044820152606401610382565b6002600055565b6000610e828284611495565b9392505050565b60075460ff168015610ea35750600754610100900460ff16155b610ebf5760405162461bcd60e51b81526004016103829061138b565b6000805b6004548110156110a257600060048281548110610ee257610ee26113b2565b906000526020600020906003020160020154111561109a5760007f00000000000000000000000000000000000000000000000000000000000000006001600160a01b031663894e9a0d60048481548110610f3e57610f3e6113b2565b9060005260206000209060030201600201546040518263ffffffff1660e01b8152600401610f6e91815260200190565b6101c060405180830381865afa158015610f8c573d6000803e3d6000fd5b505050506040513d601f19601f82011682018060405250810190610fb09190611594565b61014081015180516020909101519192506001600160801b0390811691166000610fda8284611687565b90507f00000000000000000000000000000000000000000000000000000000000000006001600160a01b03166340e58ee56004878154811061101e5761101e6113b2565b9060005260206000209060030201600201546040518263ffffffff1660e01b815260040161104e91815260200190565b600060405180830381600087803b15801561106857600080fd5b505af115801561107c573d6000803e3d6000fd5b505050506110938187610e7690919063ffffffff16565b9550505050505b600101610ec3565b506007805461ffff19166101001790556040517f585a08ec608f045f58d45a2e0e91683fb29553b00b4b951eb61d38e3887dac3a90600090a160005b60035481101561127d576000600382815481106110fd576110fd6113b2565b60009182526020808320909101546001600160a01b0316808352600290915260409091205490915015611274576005546001600160a01b0382166000908152600260205260408120549091611157916106ff9087906112d3565b905080156112725760405163a9059cbb60e01b81526001600160a01b038381166004830152602482018390527f0000000000000000000000000000000000000000000000000000000000000000169063a9059cbb906044016020604051808303816000875af11580156111ce573d6000803e3d6000fd5b505050506040513d601f19601f820116820180604052508101906111f29190611370565b61122e5760405162461bcd60e51b815260206004820152600d60248201526c1499599d5b990819985a5b1959609a1b6044820152606401610382565b816001600160a01b03167fa171b6942063c6f2800ce40a780edce37baa2b618571b11eedd1e69e626e7d768260405161126991815260200190565b60405180910390a25b505b506001016110de565b5050565b600180546001600160a01b038381166001600160a01b0319831681179093556040519116919082907f8be0079c531659141344cd1fd0a4f28419497f9722a3daafe3b4186f6b6457e090600090a35050565b6000610e82828461169a565b6000610e8282846116b1565b6000610e828284611687565b6001600160a01b0381168114610db257600080fd5b60006020828403121561131e57600080fd5b8135610e82816112f7565b60006020828403121561133b57600080fd5b5035919050565b60006020828403121561135457600080fd5b5051919050565b8051801515811461136b57600080fd5b919050565b60006020828403121561138257600080fd5b610e828261135b565b6020808252600d908201526c496e76616c696420737461746560981b604082015260600190565b634e487b7160e01b600052603260045260246000fd5b81516001600160a01b0390811682526020808401518216908301526040808401516001600160801b0316908301526060808401519182169083015261014082019050608083015161141d608084018215159052565b5060a083015161143160a084018215159052565b5060c083015161145860c0840182805164ffffffffff908116835260209182015116910152565b5060e0929092015180516001600160a01b0316610100830152602001516101209091015290565b634e487b7160e01b600052601160045260246000fd5b808201808211156107055761070561147f565b604051610180810167ffffffffffffffff811182821017156114da57634e487b7160e01b600052604160045260246000fd5b60405290565b805161136b816112f7565b805164ffffffffff8116811461136b57600080fd5b80516001600160801b038116811461136b57600080fd5b60006060828403121561152957600080fd5b6040516060810167ffffffffffffffff8111828210171561155a57634e487b7160e01b600052604160045260246000fd5b60405290508061156983611500565b815261157760208401611500565b602082015261158860408401611500565b60408201525092915050565b60006101c08284031280156115a857600080fd5b506115b16114a8565b6115ba836114e0565b81526115c8602084016114e0565b60208201526115d9604084016114eb565b60408201526115ea6060840161135b565b60608201526115fb6080840161135b565b608082015261160c60a084016114e0565b60a082015261161d60c084016114eb565b60c082015261162e60e0840161135b565b60e0820152611640610100840161135b565b610100820152611653610120840161135b565b610120820152611667846101408501611517565b61014082015261167a6101a084016114eb565b6101608201529392505050565b818103818111156107055761070561147f565b80820281158282048414176107055761070561147f565b6000826116ce57634e487b7160e01b600052601260045260246000fd5b50049056fea2646970667358221220c0326b7b123e55d865ce03fe894ded5aa64de69e96defcbea3af9b04bd20977b64736f6c634300081c0033","linkReferences":{}},"methodIdentifiers":{"donate(uint256)":"f14faf6f","donorList(uint256)":"5eed3dcb","donors(address)":"ca0cdea8","getVotingWeight(address)":"d5da24b9","isCancelled()":"95ee1221","isStreaming()":"f8ad1c40","owner()":"8da5cb5b","platformWallet()":"fa2af9da","recipients(uint256)":"d1bc76a1","renounceOwnership()":"715018a6","rescueToken(address)":"4460d3cf","sablier()":"482879aa","stablecoin()":"e9cbd822","startStreaming()":"d865f1d6","totalRaised()":"c5c4744c","totalVotingWeight()":"6de27d27","transferOwnership(address)":"f2fde38b","vote()":"632a9a52"},"id":0}