{"abi":[{"type":"constructor","inputs":[{"name":"_owner","type":"address","internalType":"address"}],"stateMutability":"nonpayable"},{"type":"function","name":"addUniversity","inputs":[{"name":"symbol","type":"string","internalType":"string"},{"name":"name","type":"string","internalType":"string"},{"name":"wallet","type":"address","internalType":"address"}],"outputs":[],"stateMutability":"nonpayable"},{"type":"function","name":"deactivateUniversity","inputs":[{"name":"symbol","type":"string","internalType":"string"}],"outputs":[],"stateMutability":"nonpayable"},{"type":"function","name":"getAllUniversitySymbols","inputs":[],"outputs":[{"name":"","type":"string[]","internalType":"string[]"}],"stateMutability":"view"},{"type":"function","name":"getSymbolByWallet","inputs":[{"name":"wallet","type":"address","internalType":"address"}],"outputs":[{"name":"symbol","type":"string","internalType":"string"}],"stateMutability":"view"},{"type":"function","name":"getUniversity","inputs":[{"name":"symbol","type":"string","internalType":"string"}],"outputs":[{"name":"name","type":"string","internalType":"string"},{"name":"wallet","type":"address","internalType":"address"},{"name":"isActive","type":"bool","internalType":"bool"}],"stateMutability":"view"},{"type":"function","name":"getUniversityCount","inputs":[],"outputs":[{"name":"","type":"uint256","internalType":"uint256"}],"stateMutability":"view"},{"type":"function","name":"isValidUniversityWallet","inputs":[{"name":"wallet","type":"address","internalType":"address"}],"outputs":[{"name":"","type":"bool","internalType":"bool"}],"stateMutability":"view"},{"type":"function","name":"owner","inputs":[],"outputs":[{"name":"","type":"address","internalType":"address"}],"stateMutability":"view"},{"type":"function","name":"reactivateUniversity","inputs":[{"name":"symbol","type":"string","internalType":"string"}],"outputs":[],"stateMutability":"nonpayable"},{"type":"function","name":"renounceOwnership","inputs":[],"outputs":[],"stateMutability":"nonpayable"},{"type":"function","name":"transferOwnership","inputs":[{"name":"newOwner","type":"address","internalType":"address"}],"outputs":[],"stateMutability":"nonpayable"},{"type":"function","name":"universities","inputs":[{"name":"","type":"string","internalType":"string"}],"outputs":[{"name":"name","type":"string","internalType":"string"},{"name":"wallet","type":"address","internalType":"address"},{"name":"isActive","type":"bool","internalType":"bool"}],"stateMutability":"view"},{"type":"function","name":"universitySymbols","inputs":[{"name":"","type":"uint256","internalType":"uint256"}],"outputs":[{"name":"","type":"string","internalType":"string"}],"stateMutability":"view"},{"type":"function","name":"updateUniversity","inputs":[{"name":"symbol","type":"string","internalType":"string"},{"name":"name","type":"string","internalType":"string"},{"name":"wallet","type":"address","internalType":"address"}],"outputs":[],"stateMutability":"nonpayable"},{"type":"function","name":"walletToSymbol","inputs":[{"name":"","type":"address","internalType":"address"}],"outputs":[{"name":"","type":"string","internalType":"string"}],"stateMutability":"view"},{"type":"event","name":"OwnershipTransferred","inputs":[{"name":"previousOwner","type":"address","indexed":true,"internalType":"address"},{"name":"newOwner","type":"address","indexed":true,"internalType":"address"}],"anonymous":false},{"type":"event","name":"UniversityAdded","inputs":[{"name":"symbol","type":"string","indexed":false,"internalType":"string"},{"name":"name","type":"string","indexed":false,"internalType":"string"},{"name":"wallet","type":"address","indexed":false,"internalType":"address"}],"anonymous":false},{"type":"event","name":"UniversityDeactivated","inputs":[{"name":"symbol","type":"string","indexed":false,"internalType":"string"}],"anonymous":false},{"type":"event","name":"UniversityReactivated","inputs":[{"name":"symbol","type":"string","indexed":false,"internalType":"string"}],"anonymous":false},{"type":"event","name":"UniversityUpdated","inputs":[{"name":"symbol","type":"string","indexed":false,"internalType":"string"},{"name":"name","type":"string","indexed":false,"internalType":"string"},{"name":"wallet","type":"address","indexed":false,"internalType":"address"}],"anonymous":false},{"type":"error","name":"OwnableInvalidOwner","inputs":[{"name":"owner","type":"address","internalType":"address"}]},{"type":"error","name":"OwnableUnauthorizedAccount","inputs":[{"name":"account","type":"address","internalType":"address"}]}],"bytecode":{"object":"0x608060405234801561001057600080fd5b506040516116a03803806116a083398101604081905261002f916100be565b806001600160a01b03811661005e57604051631e4fbdf760e01b81526000600482015260240160405180910390fd5b6100678161006e565b50506100ee565b600080546001600160a01b038381166001600160a01b0319831681178455604051919092169283917f8be0079c531659141344cd1fd0a4f28419497f9722a3daafe3b4186f6b6457e09190a35050565b6000602082840312156100d057600080fd5b81516001600160a01b03811681146100e757600080fd5b9392505050565b6115a3806100fd6000396000f3fe608060405234801561001057600080fd5b50600436106100f55760003560e01c806373de55b311610097578063d75162c511610066578063d75162c5146101fd578063e351016214610210578063f2fde38b14610223578063f66238231461023657600080fd5b806373de55b31461018a5780638da5cb5b146101ac578063af71279a146101c7578063cabce95b146101ea57600080fd5b80633132e034116100d35780633132e0341461014b578063370231281461015c5780635967cba31461016f578063715018a61461018257600080fd5b80631bc7b50d146100fa5780632954e3d6146101235780632f6083e714610138575b600080fd5b61010d61010836600461110a565b61024b565b60405161011a9190611175565b60405180910390f35b61013661013136600461122d565b6102e5565b005b61010d61014636600461110a565b610435565b60035460405190815260200161011a565b61013661016a36600461122d565b61052c565b61013661017d36600461126a565b610679565b6101366108e7565b61019d61019836600461122d565b6108fb565b60405161011a939291906112e3565b6000546040516001600160a01b03909116815260200161011a565b6101da6101d536600461110a565b6109c0565b604051901515815260200161011a565b61010d6101f8366004611316565b610aa8565b61019d61020b36600461122d565b610ad3565b61013661021e36600461126a565b610c28565b61013661023136600461110a565b610f0c565b61023e610f4a565b60405161011a919061132f565b6002602052600090815260409020805461026490611394565b80601f016020809104026020016040519081016040528092919081815260200182805461029090611394565b80156102dd5780601f106102b2576101008083540402835291602001916102dd565b820191906000526020600020905b8154815290600101906020018083116102c057829003601f168201915b505050505081565b6102ed611023565b8060006001600160a01b031660018260405161030991906113ce565b908152604051908190036020019020600101546001600160a01b03160361034b5760405162461bcd60e51b8152600401610342906113ea565b60405180910390fd5b60018160405161035b91906113ce565b9081526040519081900360200190206001015460ff600160a01b909104166103bd5760405162461bcd60e51b8152602060048201526015602482015274556e6976657273697479206e6f742061637469766560581b6044820152606401610342565b60006001836040516103cf91906113ce565b9081526040519081900360200181206001018054921515600160a01b0260ff60a01b19909316929092179091557fb4515c5560fb8858cbdd6fc13675c1825340ab0bd0785d609123a4f9274f252f90610429908490611175565b60405180910390a15050565b6001600160a01b03811660009081526002602052604081208054606092919061045d90611394565b80601f016020809104026020016040519081016040528092919081815260200182805461048990611394565b80156104d65780601f106104ab576101008083540402835291602001916104d6565b820191906000526020600020905b8154815290600101906020018083116104b957829003601f168201915b5050505050905060008151116105265760405162461bcd60e51b815260206004820152601560248201527415d85b1b195d081b9bdd081c9959da5cdd195c9959605a1b6044820152606401610342565b92915050565b610534611023565b60006001600160a01b031660018260405161054f91906113ce565b908152604051908190036020019020600101546001600160a01b0316036105885760405162461bcd60e51b8152600401610342906113ea565b60018160405161059891906113ce565b9081526040519081900360200190206001015460ff600160a01b90910416156106035760405162461bcd60e51b815260206004820152601960248201527f556e697665727369747920616c726561647920616374697665000000000000006044820152606401610342565b6001808260405161061491906113ce565b9081526040519081900360200181206001018054921515600160a01b0260ff60a01b19909316929092179091557f6c74246881de71ed860a90089675b2a1bde47a40e1d039e5e7fceb46217b05b19061066e908390611175565b60405180910390a150565b610681611023565b8260006001600160a01b031660018260405161069d91906113ce565b908152604051908190036020019020600101546001600160a01b0316036106d65760405162461bcd60e51b8152600401610342906113ea565b6001816040516106e691906113ce565b9081526040519081900360200190206001015460ff600160a01b909104166107485760405162461bcd60e51b8152602060048201526015602482015274556e6976657273697479206e6f742061637469766560581b6044820152606401610342565b6001600160a01b03821661078f5760405162461bcd60e51b815260206004820152600e60248201526d125b9d985b1a59081dd85b1b195d60921b6044820152606401610342565b816001600160a01b03166001856040516107a991906113ce565b908152604051908190036020019020600101546001600160a01b03161461083857600260006001866040516107de91906113ce565b9081526040805160209281900383019020600101546001600160a01b0316835290820192909252016000908120610814916110a0565b6001600160a01b03821660009081526002602052604090206108368582611470565b505b8260018560405161084991906113ce565b908152604051908190036020019020906108639082611470565b508160018560405161087591906113ce565b90815260405190819003602001812060010180546001600160a01b03939093166001600160a01b0319909316929092179091557ffff740924f98b38e1deb857432f186e5ebad70b76be959d198e26264393c5702906108d99086908690869061152f565b60405180910390a150505050565b6108ef611023565b6108f96000611050565b565b805160208183018101805160018252928201919093012091528054819061092190611394565b80601f016020809104026020016040519081016040528092919081815260200182805461094d90611394565b801561099a5780601f1061096f5761010080835404028352916020019161099a565b820191906000526020600020905b81548152906001019060200180831161097d57829003601f168201915b505050600190930154919250506001600160a01b0381169060ff600160a01b9091041683565b6001600160a01b038116600090815260026020526040812080548291906109e690611394565b80601f0160208091040260200160405190810160405280929190818152602001828054610a1290611394565b8015610a5f5780601f10610a3457610100808354040283529160200191610a5f565b820191906000526020600020905b815481529060010190602001808311610a4257829003601f168201915b5050505050905060008151118015610aa15750600181604051610a8291906113ce565b9081526040519081900360200190206001015460ff600160a01b909104165b9392505050565b60038181548110610ab857600080fd5b90600052602060002001600091509050805461026490611394565b60606000806000600185604051610aea91906113ce565b9081526020016040518091039020604051806060016040529081600082018054610b1390611394565b80601f0160208091040260200160405190810160405280929190818152602001828054610b3f90611394565b8015610b8c5780601f10610b6157610100808354040283529160200191610b8c565b820191906000526020600020905b815481529060010190602001808311610b6f57829003601f168201915b5050509183525050600191909101546001600160a01b03808216602080850191909152600160a01b90920460ff16151560409093019290925282015191925016610c0f5760405162461bcd60e51b8152602060048201526014602482015273155b9a5d995c9cda5d1e481b9bdd08199bdd5b9960621b6044820152606401610342565b8051602082015160409092015190969195509350915050565b610c30611023565b6000835111610c705760405162461bcd60e51b815260206004820152600c60248201526b115b5c1d1e481cde5b589bdb60a21b6044820152606401610342565b6000825111610cae5760405162461bcd60e51b815260206004820152600a602482015269456d707479206e616d6560b01b6044820152606401610342565b6001600160a01b038116610cf55760405162461bcd60e51b815260206004820152600e60248201526d125b9d985b1a59081dd85b1b195d60921b6044820152606401610342565b60006001600160a01b0316600184604051610d1091906113ce565b908152604051908190036020019020600101546001600160a01b031614610d795760405162461bcd60e51b815260206004820152601960248201527f53796d626f6c20616c72656164792072656769737465726564000000000000006044820152606401610342565b6001600160a01b03811660009081526002602052604090208054610d9c90611394565b159050610deb5760405162461bcd60e51b815260206004820152601960248201527f57616c6c657420616c72656164792072656769737465726564000000000000006044820152606401610342565b6040518060600160405280838152602001826001600160a01b0316815260200160011515815250600184604051610e2291906113ce565b90815260405190819003602001902081518190610e3f9082611470565b50602082810151600190920180546040948501511515600160a01b026001600160a81b03199091166001600160a01b03948516171790559083166000908152600290915220610e8e8482611470565b50600380546001810182556000919091527fc2575a0e9e593c00f959f8c92f12db2869c3395a3b0502d05e2516446f71f85b01610ecb8482611470565b507fe36a3f97d52c7306001da11387cbbf9e6dc517ff18790f30c89604d70130b65b838383604051610eff9392919061152f565b60405180910390a1505050565b610f14611023565b6001600160a01b038116610f3e57604051631e4fbdf760e01b815260006004820152602401610342565b610f4781611050565b50565b60606003805480602002602001604051908101604052809291908181526020016000905b8282101561101a578382906000526020600020018054610f8d90611394565b80601f0160208091040260200160405190810160405280929190818152602001828054610fb990611394565b80156110065780601f10610fdb57610100808354040283529160200191611006565b820191906000526020600020905b815481529060010190602001808311610fe957829003601f168201915b505050505081526020019060010190610f6e565b50505050905090565b6000546001600160a01b031633146108f95760405163118cdaa760e01b8152336004820152602401610342565b600080546001600160a01b038381166001600160a01b0319831681178455604051919092169283917f8be0079c531659141344cd1fd0a4f28419497f9722a3daafe3b4186f6b6457e09190a35050565b5080546110ac90611394565b6000825580601f106110bc575050565b601f016020900490600052602060002090810190610f4791905b808211156110ea57600081556001016110d6565b5090565b80356001600160a01b038116811461110557600080fd5b919050565b60006020828403121561111c57600080fd5b610aa1826110ee565b60005b83811015611140578181015183820152602001611128565b50506000910152565b60008151808452611161816020860160208601611125565b601f01601f19169290920160200192915050565b602081526000610aa16020830184611149565b634e487b7160e01b600052604160045260246000fd5b600082601f8301126111af57600080fd5b813567ffffffffffffffff8111156111c9576111c9611188565b604051601f8201601f19908116603f0116810167ffffffffffffffff811182821017156111f8576111f8611188565b60405281815283820160200185101561121057600080fd5b816020850160208301376000918101602001919091529392505050565b60006020828403121561123f57600080fd5b813567ffffffffffffffff81111561125657600080fd5b6112628482850161119e565b949350505050565b60008060006060848603121561127f57600080fd5b833567ffffffffffffffff81111561129657600080fd5b6112a28682870161119e565b935050602084013567ffffffffffffffff8111156112bf57600080fd5b6112cb8682870161119e565b9250506112da604085016110ee565b90509250925092565b6060815260006112f66060830186611149565b6001600160a01b0394909416602083015250901515604090910152919050565b60006020828403121561132857600080fd5b5035919050565b6000602082016020835280845180835260408501915060408160051b86010192506020860160005b8281101561138857603f19878603018452611373858351611149565b94506020938401939190910190600101611357565b50929695505050505050565b600181811c908216806113a857607f821691505b6020821081036113c857634e487b7160e01b600052602260045260246000fd5b50919050565b600082516113e0818460208701611125565b9190910192915050565b60208082526019908201527f556e6976657273697479206e6f74207265676973746572656400000000000000604082015260600190565b601f82111561146b57806000526020600020601f840160051c810160208510156114485750805b601f840160051c820191505b818110156114685760008155600101611454565b50505b505050565b815167ffffffffffffffff81111561148a5761148a611188565b61149e816114988454611394565b84611421565b6020601f8211600181146114d257600083156114ba5750848201515b600019600385901b1c1916600184901b178455611468565b600084815260208120601f198516915b8281101561150257878501518255602094850194600190920191016114e2565b50848210156115205786840151600019600387901b60f8161c191681555b50505050600190811b01905550565b6060815260006115426060830186611149565b82810360208401526115548186611149565b91505060018060a01b038316604083015294935050505056fea2646970667358221220bc03ebfc198c10a1c675f24b58d69e5659d4d964b055342dfb1063545e7f59bf64736f6c634300081c0033","linkReferences":{}},"methodIdentifiers":{"addUniversity(string,string,address)":"e3510162","deactivateUniversity(string)":"2954e3d6","getAllUniversitySymbols()":"f6623823","getSymbolByWallet(address)":"2f6083e7","getUniversity(string)":"d75162c5","getUniversityCount()":"3132e034","isValidUniversityWallet(address)":"af71279a","owner()":"8da5cb5b","reactivateUniversity(string)":"37023128","renounceOwnership()":"715018a6","transferOwnership(address)":"f2fde38b","universities(string)":"73de55b3","universitySymbols(uint256)":"cabce95b","updateUniversity(string,string,address)":"5967cba3","walletToSymbol(address)":"1bc7b50d"},"id":2}