{"abi":[{"type":"constructor","inputs":[{"name":"_stablecoin","type":"address","internalType":"address"},{"name":"_platformWallet","type":"address","internalType":"address"},{"name":"_recipients","type":"address[]","internalType":"address[]"},{"name":"_allocations","type":"uint256[]","internalType":"uint256[]"}],"stateMutability":"nonpayable"},{"type":"function","name":"donate","inputs":[{"name":"amount","type":"uint256","internalType":"uint256"}],"outputs":[],"stateMutability":"nonpayable"},{"type":"function","name":"donorList","inputs":[{"name":"","type":"uint256","internalType":"uint256"}],"outputs":[{"name":"","type":"address","internalType":"address"}],"stateMutability":"view"},{"type":"function","name":"donors","inputs":[{"name":"","type":"address","internalType":"address"}],"outputs":[{"name":"amount","type":"uint256","internalType":"uint256"},{"name":"hasVoted","type":"bool","internalType":"bool"}],"stateMutability":"view"},{"type":"function","name":"getVotingWeight","inputs":[{"name":"donor","type":"address","internalType":"address"}],"outputs":[{"name":"","type":"uint256","internalType":"uint256"}],"stateMutability":"view"},{"type":"function","name":"isCancelled","inputs":[],"outputs":[{"name":"","type":"bool","internalType":"bool"}],"stateMutability":"view"},{"type":"function","name":"isStreaming","inputs":[],"outputs":[{"name":"","type":"bool","internalType":"bool"}],"stateMutability":"view"},{"type":"function","name":"owner","inputs":[],"outputs":[{"name":"","type":"address","internalType":"address"}],"stateMutability":"view"},{"type":"function","name":"platformWallet","inputs":[],"outputs":[{"name":"","type":"address","internalType":"address"}],"stateMutability":"view"},{"type":"function","name":"recipients","inputs":[{"name":"","type":"uint256","internalType":"uint256"}],"outputs":[{"name":"wallet","type":"address","internalType":"address"},{"name":"allocation","type":"uint256","internalType":"uint256"}],"stateMutability":"view"},{"type":"function","name":"renounceOwnership","inputs":[],"outputs":[],"stateMutability":"nonpayable"},{"type":"function","name":"rescueToken","inputs":[{"name":"token","type":"address","internalType":"contract IERC20"}],"outputs":[],"stateMutability":"nonpayable"},{"type":"function","name":"stablecoin","inputs":[],"outputs":[{"name":"","type":"address","internalType":"contract IERC20"}],"stateMutability":"view"},{"type":"function","name":"startFunding","inputs":[],"outputs":[],"stateMutability":"nonpayable"},{"type":"function","name":"totalRaised","inputs":[],"outputs":[{"name":"","type":"uint256","internalType":"uint256"}],"stateMutability":"view"},{"type":"function","name":"totalVotingWeight","inputs":[],"outputs":[{"name":"","type":"uint256","internalType":"uint256"}],"stateMutability":"view"},{"type":"function","name":"transferOwnership","inputs":[{"name":"newOwner","type":"address","internalType":"address"}],"outputs":[],"stateMutability":"nonpayable"},{"type":"function","name":"vote","inputs":[],"outputs":[],"stateMutability":"nonpayable"},{"type":"event","name":"DonationReceived","inputs":[{"name":"donor","type":"address","indexed":true,"internalType":"address"},{"name":"amount","type":"uint256","indexed":false,"internalType":"uint256"}],"anonymous":false},{"type":"event","name":"FundingStarted","inputs":[{"name":"recipients","type":"address[]","indexed":false,"internalType":"address[]"},{"name":"amounts","type":"uint256[]","indexed":false,"internalType":"uint256[]"}],"anonymous":false},{"type":"event","name":"FundsCancelled","inputs":[{"name":"timestamp","type":"uint256","indexed":false,"internalType":"uint256"}],"anonymous":false},{"type":"event","name":"OwnershipTransferred","inputs":[{"name":"previousOwner","type":"address","indexed":true,"internalType":"address"},{"name":"newOwner","type":"address","indexed":true,"internalType":"address"}],"anonymous":false},{"type":"event","name":"PaymentSent","inputs":[{"name":"recipient","type":"address","indexed":true,"internalType":"address"},{"name":"amount","type":"uint256","indexed":false,"internalType":"uint256"}],"anonymous":false},{"type":"event","name":"RefundIssued","inputs":[{"name":"donor","type":"address","indexed":true,"internalType":"address"},{"name":"amount","type":"uint256","indexed":false,"internalType":"uint256"}],"anonymous":false},{"type":"event","name":"VoteCast","inputs":[{"name":"donor","type":"address","indexed":true,"internalType":"address"},{"name":"weight","type":"uint256","indexed":false,"internalType":"uint256"}],"anonymous":false},{"type":"error","name":"OwnableInvalidOwner","inputs":[{"name":"owner","type":"address","internalType":"address"}]},{"type":"error","name":"OwnableUnauthorizedAccount","inputs":[{"name":"account","type":"address","internalType":"address"}]}],"bytecode":{"object":"0x60c060405234801561001057600080fd5b506040516118bd3803806118bd83398101604081905261002f91610461565b6001600055338061005b57604051631e4fbdf760e01b8152600060048201526024015b60405180910390fd5b61006481610308565b5080518251146100b65760405162461bcd60e51b815260206004820152601e60248201527f496e76616c696420726563697069656e74732f616c6c6f636174696f6e7300006044820152606401610052565b60008251116100f75760405162461bcd60e51b815260206004820152600d60248201526c4e6f20726563697069656e747360981b6044820152606401610052565b6001600160a01b03808516608052831660a0526000805b83518110156102ac5760006001600160a01b03168482815181106101345761013461054c565b60200260200101516001600160a01b0316036101865760405162461bcd60e51b8152602060048201526011602482015270125b9d985b1a59081c9958da5c1a595b9d607a1b6044820152606401610052565b600083828151811061019a5761019a61054c565b6020026020010151116101e45760405162461bcd60e51b815260206004820152601260248201527124b73b30b634b21030b63637b1b0ba34b7b760711b6044820152606401610052565b6102108382815181106101f9576101f961054c565b60200260200101518361035a60201b90919060201c565b9150600460405180604001604052808684815181106102315761023161054c565b60200260200101516001600160a01b031681526020018584815181106102595761025961054c565b602090810291909101810151909152825460018082018555600094855293829020835160029092020180546001600160a01b0319166001600160a01b03909216919091178155910151908201550161010e565b5080612710146102fe5760405162461bcd60e51b815260206004820152601d60248201527f546f74616c20616c6c6f636174696f6e206d75737420626520313030250000006044820152606401610052565b5050505050610583565b600180546001600160a01b038381166001600160a01b0319831681179093556040519116919082907f8be0079c531659141344cd1fd0a4f28419497f9722a3daafe3b4186f6b6457e090600090a35050565b60006103668284610562565b90505b92915050565b80516001600160a01b038116811461038657600080fd5b919050565b634e487b7160e01b600052604160045260246000fd5b604051601f8201601f191681016001600160401b03811182821017156103c9576103c961038b565b604052919050565b60006001600160401b038211156103ea576103ea61038b565b5060051b60200190565b600082601f83011261040557600080fd5b8151610418610413826103d1565b6103a1565b8082825260208201915060208360051b86010192508583111561043a57600080fd5b602085015b8381101561045757805183526020928301920161043f565b5095945050505050565b6000806000806080858703121561047757600080fd5b6104808561036f565b935061048e6020860161036f565b60408601519093506001600160401b038111156104aa57600080fd5b8501601f810187136104bb57600080fd5b80516104c9610413826103d1565b8082825260208201915060208360051b8501019250898311156104eb57600080fd5b6020840193505b82841015610514576105038461036f565b8252602093840193909101906104f2565b6060890151909550925050506001600160401b0381111561053457600080fd5b610540878288016103f4565b91505092959194509250565b634e487b7160e01b600052603260045260246000fd5b8082018082111561036957634e487b7160e01b600052601160045260246000fd5b60805160a0516112e46105d9600039600081816102a301526103c9015260008181610249015281816103fb015281816105500152818161076301528181610c4701528181610eb90152610fea01526112e46000f3fe608060405234801561001057600080fd5b506004361061010b5760003560e01c8063c5c4744c116100a2578063e9cbd82211610071578063e9cbd82214610244578063f14faf6f1461026b578063f2fde38b1461027e578063f8ad1c4014610291578063fa2af9da1461029e57600080fd5b8063c5c4744c146101b7578063ca0cdea8146101c0578063d1bc76a1146101ff578063d5da24b91461023157600080fd5b80636de27d27116100de5780636de27d2714610165578063715018a61461017c5780638da5cb5b1461018457806395ee12211461019557600080fd5b80630cf01051146101105780634460d3cf1461011a5780635eed3dcb1461012d578063632a9a521461015d575b600080fd5b6101186102c5565b005b610118610128366004611111565b610759565b61014061013b36600461112e565b61092a565b6040516001600160a01b0390911681526020015b60405180910390f35b610118610954565b61016e60065481565b604051908152602001610154565b610118610ae4565b6001546001600160a01b0316610140565b6007546101a790610100900460ff1681565b6040519015158152602001610154565b61016e60055481565b6101ea6101ce366004611111565b6002602052600090815260409020805460019091015460ff1682565b60408051928352901515602083015201610154565b61021261020d36600461112e565b610af6565b604080516001600160a01b039093168352602083019190915201610154565b61016e61023f366004611111565b610b2e565b6101407f000000000000000000000000000000000000000000000000000000000000000081565b61011861027936600461112e565b610b75565b61011861028c366004611111565b610d92565b6007546101a79060ff1681565b6101407f000000000000000000000000000000000000000000000000000000000000000081565b6102cd610dcd565b6102d5610dfa565b60075460ff161580156102f05750600754610100900460ff16155b6103315760405162461bcd60e51b815260206004820152600d60248201526c496e76616c696420737461746560981b60448201526064015b60405180910390fd5b6000600554116103755760405162461bcd60e51b815260206004820152600f60248201526e139bc8199d5b991cc81c985a5cd959608a1b6044820152606401610328565b60006103996127106103936064600554610e5390919063ffffffff16565b90610e66565b905060006103b282600554610e7290919063ffffffff16565b60405163a9059cbb60e01b81526001600160a01b037f000000000000000000000000000000000000000000000000000000000000000081166004830152602482018590529192507f00000000000000000000000000000000000000000000000000000000000000009091169063a9059cbb906044016020604051808303816000875af1158015610446573d6000803e3d6000fd5b505050506040513d601f19601f8201168201806040525081019061046a9190611147565b5060045460009067ffffffffffffffff81111561048957610489611169565b6040519080825280602002602001820160405280156104b2578160200160208202803683370190505b5060045490915060009067ffffffffffffffff8111156104d4576104d4611169565b6040519080825280602002602001820160405280156104fd578160200160208202803683370190505b50905060005b60045481101561070157600061054c6127106103936004858154811061052b5761052b61117f565b90600052602060002090600202016001015488610e5390919063ffffffff16565b90507f00000000000000000000000000000000000000000000000000000000000000006001600160a01b031663a9059cbb600484815481106105905761059061117f565b600091825260209091206002909102015460405160e083901b6001600160e01b03191681526001600160a01b039091166004820152602481018490526044016020604051808303816000875af11580156105ee573d6000803e3d6000fd5b505050506040513d601f19601f820116820180604052508101906106129190611147565b50600482815481106106265761062661117f565b600091825260209091206002909102015484516001600160a01b03909116908590849081106106575761065761117f565b60200260200101906001600160a01b031690816001600160a01b0316815250508083838151811061068a5761068a61117f565b602002602001018181525050600482815481106106a9576106a961117f565b6000918252602091829020600290910201546040518381526001600160a01b03909116917f47db2abce6d5fbcd80ffd9b4ba74dcde804a746ef732bc7f8a70fabfc912c590910160405180910390a250600101610503565b506007805460ff191660011790556040517f256a6db12f22ae15f26bf3aad84550421a8d1c5cf37461a0d36424508e2eaa92906107419084908490611195565b60405180910390a1505050506107576001600055565b565b610761610dcd565b7f00000000000000000000000000000000000000000000000000000000000000006001600160a01b0316816001600160a01b0316036107e25760405162461bcd60e51b815260206004820152601a60248201527f43616e6e6f74207265736375652073747265616d20746f6b656e0000000000006044820152606401610328565b6040516370a0823160e01b81523060048201526000906001600160a01b038316906370a0823190602401602060405180830381865afa158015610829573d6000803e3d6000fd5b505050506040513d601f19601f8201168201806040525081019061084d9190611220565b9050600081116108935760405162461bcd60e51b81526020600482015260116024820152704e6f7468696e6720746f2072657363756560781b6044820152606401610328565b816001600160a01b031663a9059cbb6108b46001546001600160a01b031690565b6040516001600160e01b031960e084901b1681526001600160a01b039091166004820152602481018490526044016020604051808303816000875af1158015610901573d6000803e3d6000fd5b505050506040513d601f19601f820116820180604052508101906109259190611147565b505050565b6003818154811061093a57600080fd5b6000918252602090912001546001600160a01b0316905081565b61095c610dfa565b60075460ff1680156109765750600754610100900460ff16155b6109b25760405162461bcd60e51b815260206004820152600d60248201526c496e76616c696420737461746560981b6044820152606401610328565b336000908152600260205260409020546109fc5760405162461bcd60e51b815260206004820152600b60248201526a2737ba1030903237b737b960a91b6044820152606401610328565b3360009081526002602052604090206001015460ff1615610a4f5760405162461bcd60e51b815260206004820152600d60248201526c105b1c9958591e481d9bdd1959609a1b6044820152606401610328565b6000610a5a33610b2e565b600654909150610a6a9082610e7e565b60065533600081815260026020526040908190206001908101805460ff19169091179055517fa36cc2bebb74db33e9f88110a07ef56e1b31b24b4c4f51b54b1664266e29f45b90610abe9084815260200190565b60405180910390a261138860065410610ad957610ad9610e8a565b506107576001600055565b610aec610dcd565b61075760006110aa565b60048181548110610b0657600080fd5b6000918252602090912060029091020180546001909101546001600160a01b03909116915082565b6000600554600003610b4257506000919050565b6005546001600160a01b038316600090815260026020526040902054610b6f919061039390612710610e53565b92915050565b610b7d610dfa565b60075460ff16158015610b985750600754610100900460ff16155b610be45760405162461bcd60e51b815260206004820152601c60248201527f46756e64206e6f7420616363657074696e6720646f6e6174696f6e73000000006044820152606401610328565b60008111610c255760405162461bcd60e51b815260206004820152600e60248201526d125b9d985b1a5908185b5bdd5b9d60921b6044820152606401610328565b6040516323b872dd60e01b8152336004820152306024820152604481018290527f00000000000000000000000000000000000000000000000000000000000000006001600160a01b0316906323b872dd906064016020604051808303816000875af1158015610c98573d6000803e3d6000fd5b505050506040513d601f19601f82011682018060405250810190610cbc9190611147565b50336000908152600260205260408120549003610d1657600380546001810182556000919091527fc2575a0e9e593c00f959f8c92f12db2869c3395a3b0502d05e2516446f71f85b0180546001600160a01b031916331790555b33600090815260026020526040902054610d309082610e7e565b33600090815260026020526040902055600554610d4d9082610e7e565b60055560405181815233907f264f630d9efa0d07053a31163641d9fcc0adafc9d9e76f1c37c2ce3a558d2c529060200160405180910390a2610d8f6001600055565b50565b610d9a610dcd565b6001600160a01b038116610dc457604051631e4fbdf760e01b815260006004820152602401610328565b610d8f816110aa565b6001546001600160a01b031633146107575760405163118cdaa760e01b8152336004820152602401610328565b600260005403610e4c5760405162461bcd60e51b815260206004820152601f60248201527f5265656e7472616e637947756172643a207265656e7472616e742063616c6c006044820152606401610328565b6002600055565b6000610e5f828461124f565b9392505050565b6000610e5f8284611266565b6000610e5f8284611288565b6000610e5f828461129b565b6007805461ffff19166101001790556040516370a0823160e01b81523060048201526000906001600160a01b037f000000000000000000000000000000000000000000000000000000000000000016906370a0823190602401602060405180830381865afa158015610f00573d6000803e3d6000fd5b505050506040513d601f19601f82011682018060405250810190610f249190611220565b90507f9db6a926b6301263d14e9bc9e215908e975943adda89a21904e99aa311e1118742604051610f5791815260200190565b60405180910390a160005b6003548110156110a657600060038281548110610f8157610f8161117f565b60009182526020808320909101546005546001600160a01b0390911680845260029092526040832054919350610fbc91610393908790610e53565b9050801561109c5760405163a9059cbb60e01b81526001600160a01b038381166004830152602482018390527f0000000000000000000000000000000000000000000000000000000000000000169063a9059cbb906044016020604051808303816000875af1158015611033573d6000803e3d6000fd5b505050506040513d601f19601f820116820180604052508101906110579190611147565b50816001600160a01b03167fa171b6942063c6f2800ce40a780edce37baa2b618571b11eedd1e69e626e7d768260405161109391815260200190565b60405180910390a25b5050600101610f62565b5050565b600180546001600160a01b038381166001600160a01b0319831681179093556040519116919082907f8be0079c531659141344cd1fd0a4f28419497f9722a3daafe3b4186f6b6457e090600090a35050565b6001600160a01b0381168114610d8f57600080fd5b60006020828403121561112357600080fd5b8135610e5f816110fc565b60006020828403121561114057600080fd5b5035919050565b60006020828403121561115957600080fd5b81518015158114610e5f57600080fd5b634e487b7160e01b600052604160045260246000fd5b634e487b7160e01b600052603260045260246000fd5b6040808252835190820181905260009060208501906060840190835b818110156111d85783516001600160a01b03168352602093840193909201916001016111b1565b50508381036020808601919091528551808352918101925085019060005b818110156112145782518452602093840193909201916001016111f6565b50919695505050505050565b60006020828403121561123257600080fd5b5051919050565b634e487b7160e01b600052601160045260246000fd5b8082028115828204841417610b6f57610b6f611239565b60008261128357634e487b7160e01b600052601260045260246000fd5b500490565b81810381811115610b6f57610b6f611239565b80820180821115610b6f57610b6f61123956fea2646970667358221220b683d275e483a3c163d4d568c34b456e1cba99cce490104acc35fd0464d250f064736f6c634300081c0033","linkReferences":{}},"methodIdentifiers":{"donate(uint256)":"f14faf6f","donorList(uint256)":"5eed3dcb","donors(address)":"ca0cdea8","getVotingWeight(address)":"d5da24b9","isCancelled()":"95ee1221","isStreaming()":"f8ad1c40","owner()":"8da5cb5b","platformWallet()":"fa2af9da","recipients(uint256)":"d1bc76a1","renounceOwnership()":"715018a6","rescueToken(address)":"4460d3cf","stablecoin()":"e9cbd822","startFunding()":"0cf01051","totalRaised()":"c5c4744c","totalVotingWeight()":"6de27d27","transferOwnership(address)":"f2fde38b","vote()":"632a9a52"},"id":1}