{"abi":[{"type":"constructor","inputs":[{"name":"_stablecoin","type":"address","internalType":"address"},{"name":"_platformWallet","type":"address","internalType":"address"},{"name":"_recipients","type":"address[]","internalType":"address[]"},{"name":"_allocations","type":"uint256[]","internalType":"uint256[]"}],"stateMutability":"nonpayable"},{"type":"function","name":"donate","inputs":[{"name":"amount","type":"uint256","internalType":"uint256"}],"outputs":[],"stateMutability":"nonpayable"},{"type":"function","name":"donorList","inputs":[{"name":"","type":"uint256","internalType":"uint256"}],"outputs":[{"name":"","type":"address","internalType":"address"}],"stateMutability":"view"},{"type":"function","name":"donors","inputs":[{"name":"","type":"address","internalType":"address"}],"outputs":[{"name":"amount","type":"uint256","internalType":"uint256"},{"name":"hasVoted","type":"bool","internalType":"bool"}],"stateMutability":"view"},{"type":"function","name":"isActive","inputs":[],"outputs":[{"name":"","type":"bool","internalType":"bool"}],"stateMutability":"view"},{"type":"function","name":"isCancelled","inputs":[],"outputs":[{"name":"","type":"bool","internalType":"bool"}],"stateMutability":"view"},{"type":"function","name":"owner","inputs":[],"outputs":[{"name":"","type":"address","internalType":"address"}],"stateMutability":"view"},{"type":"function","name":"platformWallet","inputs":[],"outputs":[{"name":"","type":"address","internalType":"address"}],"stateMutability":"view"},{"type":"function","name":"recipients","inputs":[{"name":"","type":"uint256","internalType":"uint256"}],"outputs":[{"name":"wallet","type":"address","internalType":"address"},{"name":"allocation","type":"uint256","internalType":"uint256"}],"stateMutability":"view"},{"type":"function","name":"renounceOwnership","inputs":[],"outputs":[],"stateMutability":"nonpayable"},{"type":"function","name":"rescueToken","inputs":[{"name":"token","type":"address","internalType":"contract IERC20"}],"outputs":[],"stateMutability":"nonpayable"},{"type":"function","name":"stablecoin","inputs":[],"outputs":[{"name":"","type":"address","internalType":"contract IERC20"}],"stateMutability":"view"},{"type":"function","name":"startFunding","inputs":[],"outputs":[],"stateMutability":"nonpayable"},{"type":"function","name":"totalRaised","inputs":[],"outputs":[{"name":"","type":"uint256","internalType":"uint256"}],"stateMutability":"view"},{"type":"function","name":"totalVotingWeight","inputs":[],"outputs":[{"name":"","type":"uint256","internalType":"uint256"}],"stateMutability":"view"},{"type":"function","name":"transferOwnership","inputs":[{"name":"newOwner","type":"address","internalType":"address"}],"outputs":[],"stateMutability":"nonpayable"},{"type":"function","name":"vote","inputs":[],"outputs":[],"stateMutability":"nonpayable"},{"type":"event","name":"DonationReceived","inputs":[{"name":"donor","type":"address","indexed":true,"internalType":"address"},{"name":"amount","type":"uint256","indexed":false,"internalType":"uint256"}],"anonymous":false},{"type":"event","name":"FundingStarted","inputs":[{"name":"totalAmount","type":"uint256","indexed":false,"internalType":"uint256"},{"name":"distributed","type":"uint256","indexed":false,"internalType":"uint256"},{"name":"reserved","type":"uint256","indexed":false,"internalType":"uint256"}],"anonymous":false},{"type":"event","name":"FundsCancelled","inputs":[],"anonymous":false},{"type":"event","name":"OwnershipTransferred","inputs":[{"name":"previousOwner","type":"address","indexed":true,"internalType":"address"},{"name":"newOwner","type":"address","indexed":true,"internalType":"address"}],"anonymous":false},{"type":"event","name":"RecipientPaid","inputs":[{"name":"recipient","type":"address","indexed":true,"internalType":"address"},{"name":"amount","type":"uint256","indexed":false,"internalType":"uint256"}],"anonymous":false},{"type":"event","name":"RefundIssued","inputs":[{"name":"donor","type":"address","indexed":true,"internalType":"address"},{"name":"amount","type":"uint256","indexed":false,"internalType":"uint256"}],"anonymous":false},{"type":"event","name":"VoteCast","inputs":[{"name":"donor","type":"address","indexed":true,"internalType":"address"},{"name":"weight","type":"uint256","indexed":false,"internalType":"uint256"}],"anonymous":false},{"type":"error","name":"OwnableInvalidOwner","inputs":[{"name":"owner","type":"address","internalType":"address"}]},{"type":"error","name":"OwnableUnauthorizedAccount","inputs":[{"name":"account","type":"address","internalType":"address"}]}],"bytecode":{"object":"0x60c060405234801561001057600080fd5b5060405161185638038061185683398101604081905261002f91610445565b6001600055338061005b57604051631e4fbdf760e01b8152600060048201526024015b60405180910390fd5b61006481610301565b5080518251146100b65760405162461bcd60e51b815260206004820152601e60248201527f496e76616c696420726563697069656e74732f616c6c6f636174696f6e7300006044820152606401610052565b60008251116100f75760405162461bcd60e51b815260206004820152600d60248201526c4e6f20726563697069656e747360981b6044820152606401610052565b6001600160a01b03808516608052831660a0526000805b83518110156102a55760006001600160a01b031684828151811061013457610134610530565b60200260200101516001600160a01b0316036101865760405162461bcd60e51b8152602060048201526011602482015270125b9d985b1a59081c9958da5c1a595b9d607a1b6044820152606401610052565b600083828151811061019a5761019a610530565b6020026020010151116101e45760405162461bcd60e51b815260206004820152601260248201527124b73b30b634b21030b63637b1b0ba34b7b760711b6044820152606401610052565b8281815181106101f6576101f6610530565b6020026020010151826102099190610546565b91506004604051806040016040528086848151811061022a5761022a610530565b60200260200101516001600160a01b0316815260200185848151811061025257610252610530565b602090810291909101810151909152825460018082018555600094855293829020835160029092020180546001600160a01b0319166001600160a01b03909216919091178155910151908201550161010e565b5080612710146102f75760405162461bcd60e51b815260206004820152601d60248201527f546f74616c20616c6c6f636174696f6e206d75737420626520313030250000006044820152606401610052565b505050505061056d565b600180546001600160a01b038381166001600160a01b0319831681179093556040519116919082907f8be0079c531659141344cd1fd0a4f28419497f9722a3daafe3b4186f6b6457e090600090a35050565b80516001600160a01b038116811461036a57600080fd5b919050565b634e487b7160e01b600052604160045260246000fd5b604051601f8201601f191681016001600160401b03811182821017156103ad576103ad61036f565b604052919050565b60006001600160401b038211156103ce576103ce61036f565b5060051b60200190565b600082601f8301126103e957600080fd5b81516103fc6103f7826103b5565b610385565b8082825260208201915060208360051b86010192508583111561041e57600080fd5b602085015b8381101561043b578051835260209283019201610423565b5095945050505050565b6000806000806080858703121561045b57600080fd5b61046485610353565b935061047260208601610353565b60408601519093506001600160401b0381111561048e57600080fd5b8501601f8101871361049f57600080fd5b80516104ad6103f7826103b5565b8082825260208201915060208360051b8501019250898311156104cf57600080fd5b6020840193505b828410156104f8576104e784610353565b8252602093840193909101906104d6565b6060890151909550925050506001600160401b0381111561051857600080fd5b610524878288016103d8565b91505092959194509250565b634e487b7160e01b600052603260045260246000fd5b8082018082111561056757634e487b7160e01b600052601160045260246000fd5b92915050565b60805160a0516112936105c36000396000818161028501526103c9015260008181610238015281816103fb01528181610506015281816106ea01528181610be301528181610e860152610fc901526112936000f3fe608060405234801561001057600080fd5b50600436106101005760003560e01c806395ee122111610097578063e9cbd82211610066578063e9cbd82214610233578063f14faf6f1461025a578063f2fde38b1461026d578063fa2af9da1461028057600080fd5b806395ee1221146101a7578063c5c4744c146101b9578063ca0cdea8146101c2578063d1bc76a11461020157600080fd5b8063632a9a52116100d3578063632a9a521461016f5780636de27d2714610177578063715018a61461018e5780638da5cb5b1461019657600080fd5b80630cf010511461010557806322f3e2d41461010f5780634460d3cf146101315780635eed3dcb14610144575b600080fd5b61010d6102a7565b005b60075461011c9060ff1681565b60405190151581526020015b60405180910390f35b61010d61013f366004611154565b6106e0565b610157610152366004611178565b6108ec565b6040516001600160a01b039091168152602001610128565b61010d610916565b61018060065481565b604051908152602001610128565b61010d610ac7565b6001546001600160a01b0316610157565b60075461011c90610100900460ff1681565b61018060055481565b6101ec6101d0366004611154565b6002602052600090815260409020805460019091015460ff1682565b60408051928352901515602083015201610128565b61021461020f366004611178565b610ad9565b604080516001600160a01b039093168352602083019190915201610128565b6101577f000000000000000000000000000000000000000000000000000000000000000081565b61010d610268366004611178565b610b11565b61010d61027b366004611154565b610d30565b6101577f000000000000000000000000000000000000000000000000000000000000000081565b6102af610d6b565b6102b7610d98565b60075460ff161580156102d25750600754610100900460ff16155b6103135760405162461bcd60e51b815260206004820152600d60248201526c496e76616c696420737461746560981b60448201526064015b60405180910390fd5b6000600554116103575760405162461bcd60e51b815260206004820152600f60248201526e139bc8199d5b991cc81c985a5cd959608a1b604482015260640161030a565b6000612710606460055461036b91906111a7565b61037591906111c4565b905060008160055461038791906111e6565b9050600061271061039a611b58846111a7565b6103a491906111c4565b905060006103b282846111e6565b60405163a9059cbb60e01b81526001600160a01b037f000000000000000000000000000000000000000000000000000000000000000081166004830152602482018790529192507f00000000000000000000000000000000000000000000000000000000000000009091169063a9059cbb906044016020604051808303816000875af1158015610446573d6000803e3d6000fd5b505050506040513d601f19601f8201168201806040525081019061046a91906111f9565b6104b65760405162461bcd60e51b815260206004820152601c60248201527f506c6174666f726d20666565207472616e73666572206661696c656400000000604482015260640161030a565b60005b60045481101561067f576000612710600483815481106104db576104db61121b565b906000526020600020906002020160010154856104f891906111a7565b61050291906111c4565b90507f00000000000000000000000000000000000000000000000000000000000000006001600160a01b031663a9059cbb600484815481106105465761054661121b565b600091825260209091206002909102015460405160e083901b6001600160e01b03191681526001600160a01b039091166004820152602481018490526044016020604051808303816000875af11580156105a4573d6000803e3d6000fd5b505050506040513d601f19601f820116820180604052508101906105c891906111f9565b6106145760405162461bcd60e51b815260206004820152601960248201527f526563697069656e74207472616e73666572206661696c656400000000000000604482015260640161030a565b600482815481106106275761062761121b565b6000918252602091829020600290910201546040518381526001600160a01b03909116917f3345dff52f7d4d803cbf38e3ea1336038dbc4bb99a73a70c4d64d32ed47ab635910160405180910390a2506001016104b9565b506007805460ff19166001179055600554604080519182526020820184905281018290527f046c43b5c9acbe08f5c9502b883134201f1eda0c361248c5d58026a870763d0b9060600160405180910390a1505050506106de6001600055565b565b6106e8610d6b565b7f00000000000000000000000000000000000000000000000000000000000000006001600160a01b0316816001600160a01b0316036107695760405162461bcd60e51b815260206004820152601c60248201527f43616e6e6f74207265736375652063616d706169676e20746f6b656e00000000604482015260640161030a565b6040516370a0823160e01b81523060048201526000906001600160a01b038316906370a0823190602401602060405180830381865afa1580156107b0573d6000803e3d6000fd5b505050506040513d601f19601f820116820180604052508101906107d49190611231565b90506000811161081a5760405162461bcd60e51b81526020600482015260116024820152704e6f7468696e6720746f2072657363756560781b604482015260640161030a565b816001600160a01b031663a9059cbb61083b6001546001600160a01b031690565b6040516001600160e01b031960e084901b1681526001600160a01b039091166004820152602481018490526044016020604051808303816000875af1158015610888573d6000803e3d6000fd5b505050506040513d601f19601f820116820180604052508101906108ac91906111f9565b6108e85760405162461bcd60e51b815260206004820152600d60248201526c14995cd8dd594819985a5b1959609a1b604482015260640161030a565b5050565b600381815481106108fc57600080fd5b6000918252602090912001546001600160a01b0316905081565b61091e610d98565b60075460ff1680156109385750600754610100900460ff16155b6109745760405162461bcd60e51b815260206004820152600d60248201526c496e76616c696420737461746560981b604482015260640161030a565b336000908152600260205260409020546109be5760405162461bcd60e51b815260206004820152600b60248201526a2737ba1030903237b737b960a91b604482015260640161030a565b3360009081526002602052604090206001015460ff1615610a115760405162461bcd60e51b815260206004820152600d60248201526c105b1c9958591e481d9bdd1959609a1b604482015260640161030a565b60055433600090815260026020526040812054909190610a33906127106111a7565b610a3d91906111c4565b905080600654610a4d919061124a565b60065533600081815260026020526040908190206001908101805460ff19169091179055517fa36cc2bebb74db33e9f88110a07ef56e1b31b24b4c4f51b54b1664266e29f45b90610aa19084815260200190565b60405180910390a261138860065410610abc57610abc610df1565b506106de6001600055565b610acf610d6b565b6106de60006110ed565b60048181548110610ae957600080fd5b6000918252602090912060029091020180546001909101546001600160a01b03909116915082565b610b19610d98565b60075460ff16158015610b345750600754610100900460ff16155b610b805760405162461bcd60e51b815260206004820152601c60248201527f46756e64206e6f7420616363657074696e6720646f6e6174696f6e7300000000604482015260640161030a565b60008111610bc15760405162461bcd60e51b815260206004820152600e60248201526d125b9d985b1a5908185b5bdd5b9d60921b604482015260640161030a565b6040516323b872dd60e01b8152336004820152306024820152604481018290527f00000000000000000000000000000000000000000000000000000000000000006001600160a01b0316906323b872dd906064016020604051808303816000875af1158015610c34573d6000803e3d6000fd5b505050506040513d601f19601f82011682018060405250810190610c5891906111f9565b50336000908152600260205260408120549003610cb257600380546001810182556000919091527fc2575a0e9e593c00f959f8c92f12db2869c3395a3b0502d05e2516446f71f85b0180546001600160a01b031916331790555b33600090815260026020526040902054610ccd90829061124a565b33600090815260026020526040902055600554610ceb90829061124a565b60055560405181815233907f264f630d9efa0d07053a31163641d9fcc0adafc9d9e76f1c37c2ce3a558d2c529060200160405180910390a2610d2d6001600055565b50565b610d38610d6b565b6001600160a01b038116610d6257604051631e4fbdf760e01b81526000600482015260240161030a565b610d2d816110ed565b6001546001600160a01b031633146106de5760405163118cdaa760e01b815233600482015260240161030a565b600260005403610dea5760405162461bcd60e51b815260206004820152601f60248201527f5265656e7472616e637947756172643a207265656e7472616e742063616c6c00604482015260640161030a565b6002600055565b60075460ff168015610e0b5750600754610100900460ff16155b610e575760405162461bcd60e51b815260206004820152601e60248201527f496e76616c696420737461746520666f722063616e63656c6c6174696f6e0000604482015260640161030a565b6007805461ffff19166101001790556040516370a0823160e01b81523060048201526000906001600160a01b037f000000000000000000000000000000000000000000000000000000000000000016906370a0823190602401602060405180830381865afa158015610ecd573d6000803e3d6000fd5b505050506040513d601f19601f82011682018060405250810190610ef19190611231565b905060008111610f385760405162461bcd60e51b8152602060048201526012602482015271139bc8199d5b991cc81d1bc81c99599d5b9960721b604482015260640161030a565b60005b6003548110156110c057600060038281548110610f5a57610f5a61121b565b60009182526020808320909101546005546001600160a01b039091168084526002909252604083205491935090610f9190866111a7565b610f9b91906111c4565b905080156110b65760405163a9059cbb60e01b81526001600160a01b038381166004830152602482018390527f0000000000000000000000000000000000000000000000000000000000000000169063a9059cbb906044016020604051808303816000875af1158015611012573d6000803e3d6000fd5b505050506040513d601f19601f8201168201806040525081019061103691906111f9565b6110725760405162461bcd60e51b815260206004820152600d60248201526c1499599d5b990819985a5b1959609a1b604482015260640161030a565b816001600160a01b03167fa171b6942063c6f2800ce40a780edce37baa2b618571b11eedd1e69e626e7d76826040516110ad91815260200190565b60405180910390a25b5050600101610f3b565b506040517fd1f7acc3d0499dc8dc9e64bc57e4fd2661517526541354d02a1e9840dd6d5c7890600090a150565b600180546001600160a01b038381166001600160a01b0319831681179093556040519116919082907f8be0079c531659141344cd1fd0a4f28419497f9722a3daafe3b4186f6b6457e090600090a35050565b6001600160a01b0381168114610d2d57600080fd5b60006020828403121561116657600080fd5b81356111718161113f565b9392505050565b60006020828403121561118a57600080fd5b5035919050565b634e487b7160e01b600052601160045260246000fd5b80820281158282048414176111be576111be611191565b92915050565b6000826111e157634e487b7160e01b600052601260045260246000fd5b500490565b818103818111156111be576111be611191565b60006020828403121561120b57600080fd5b8151801515811461117157600080fd5b634e487b7160e01b600052603260045260246000fd5b60006020828403121561124357600080fd5b5051919050565b808201808211156111be576111be61119156fea2646970667358221220ece2e2f5d87d83482c45264094a8adb95ebae986965595847ec6229caaf5b59f64736f6c634300081c0033","linkReferences":{}},"methodIdentifiers":{"donate(uint256)":"f14faf6f","donorList(uint256)":"5eed3dcb","donors(address)":"ca0cdea8","isActive()":"22f3e2d4","isCancelled()":"95ee1221","owner()":"8da5cb5b","platformWallet()":"fa2af9da","recipients(uint256)":"d1bc76a1","renounceOwnership()":"715018a6","rescueToken(address)":"4460d3cf","stablecoin()":"e9cbd822","startFunding()":"0cf01051","totalRaised()":"c5c4744c","totalVotingWeight()":"6de27d27","transferOwnership(address)":"f2fde38b","vote()":"632a9a52"},"id":0}