{"abi":[{"type":"constructor","inputs":[{"name":"_stablecoin","type":"address","internalType":"address"},{"name":"_platformWallet","type":"address","internalType":"address"},{"name":"_registry","type":"address","internalType":"address"},{"name":"_universitySymbols","type":"string[]","internalType":"string[]"},{"name":"_allocations","type":"uint256[]","internalType":"uint256[]"}],"stateMutability":"nonpayable"},{"type":"function","name":"donate","inputs":[{"name":"amount","type":"uint256","internalType":"uint256"}],"outputs":[],"stateMutability":"nonpayable"},{"type":"function","name":"donorList","inputs":[{"name":"","type":"uint256","internalType":"uint256"}],"outputs":[{"name":"","type":"address","internalType":"address"}],"stateMutability":"view"},{"type":"function","name":"donors","inputs":[{"name":"","type":"address","internalType":"address"}],"outputs":[{"name":"amount","type":"uint256","internalType":"uint256"},{"name":"hasVoted","type":"bool","internalType":"bool"}],"stateMutability":"view"},{"type":"function","name":"isActive","inputs":[],"outputs":[{"name":"","type":"bool","internalType":"bool"}],"stateMutability":"view"},{"type":"function","name":"isCancelled","inputs":[],"outputs":[{"name":"","type":"bool","internalType":"bool"}],"stateMutability":"view"},{"type":"function","name":"owner","inputs":[],"outputs":[{"name":"","type":"address","internalType":"address"}],"stateMutability":"view"},{"type":"function","name":"platformWallet","inputs":[],"outputs":[{"name":"","type":"address","internalType":"address"}],"stateMutability":"view"},{"type":"function","name":"recipients","inputs":[{"name":"","type":"uint256","internalType":"uint256"}],"outputs":[{"name":"wallet","type":"address","internalType":"address"},{"name":"allocation","type":"uint256","internalType":"uint256"}],"stateMutability":"view"},{"type":"function","name":"renounceOwnership","inputs":[],"outputs":[],"stateMutability":"nonpayable"},{"type":"function","name":"rescueToken","inputs":[{"name":"token","type":"address","internalType":"contract IERC20"}],"outputs":[],"stateMutability":"nonpayable"},{"type":"function","name":"stablecoin","inputs":[],"outputs":[{"name":"","type":"address","internalType":"contract IERC20"}],"stateMutability":"view"},{"type":"function","name":"startFunding","inputs":[],"outputs":[],"stateMutability":"nonpayable"},{"type":"function","name":"totalRaised","inputs":[],"outputs":[{"name":"","type":"uint256","internalType":"uint256"}],"stateMutability":"view"},{"type":"function","name":"totalVotingWeight","inputs":[],"outputs":[{"name":"","type":"uint256","internalType":"uint256"}],"stateMutability":"view"},{"type":"function","name":"transferOwnership","inputs":[{"name":"newOwner","type":"address","internalType":"address"}],"outputs":[],"stateMutability":"nonpayable"},{"type":"function","name":"universityRegistry","inputs":[],"outputs":[{"name":"","type":"address","internalType":"contract UniversityRegistry"}],"stateMutability":"view"},{"type":"function","name":"vote","inputs":[],"outputs":[],"stateMutability":"nonpayable"},{"type":"event","name":"DonationReceived","inputs":[{"name":"donor","type":"address","indexed":true,"internalType":"address"},{"name":"amount","type":"uint256","indexed":false,"internalType":"uint256"}],"anonymous":false},{"type":"event","name":"FundingStarted","inputs":[{"name":"totalAmount","type":"uint256","indexed":false,"internalType":"uint256"},{"name":"distributed","type":"uint256","indexed":false,"internalType":"uint256"},{"name":"reserved","type":"uint256","indexed":false,"internalType":"uint256"}],"anonymous":false},{"type":"event","name":"FundsCancelled","inputs":[],"anonymous":false},{"type":"event","name":"OwnershipTransferred","inputs":[{"name":"previousOwner","type":"address","indexed":true,"internalType":"address"},{"name":"newOwner","type":"address","indexed":true,"internalType":"address"}],"anonymous":false},{"type":"event","name":"RecipientPaid","inputs":[{"name":"recipient","type":"address","indexed":true,"internalType":"address"},{"name":"amount","type":"uint256","indexed":false,"internalType":"uint256"}],"anonymous":false},{"type":"event","name":"RefundIssued","inputs":[{"name":"donor","type":"address","indexed":true,"internalType":"address"},{"name":"amount","type":"uint256","indexed":false,"internalType":"uint256"}],"anonymous":false},{"type":"event","name":"VoteCast","inputs":[{"name":"donor","type":"address","indexed":true,"internalType":"address"},{"name":"weight","type":"uint256","indexed":false,"internalType":"uint256"}],"anonymous":false},{"type":"error","name":"OwnableInvalidOwner","inputs":[{"name":"owner","type":"address","internalType":"address"}]},{"type":"error","name":"OwnableUnauthorizedAccount","inputs":[{"name":"account","type":"address","internalType":"address"}]}],"bytecode":{"object":"0x60e060405234801561001057600080fd5b50604051611a97380380611a9783398101604081905261002f91610587565b6001600055338061005b57604051631e4fbdf760e01b8152600060048201526024015b60405180910390fd5b610064816103b4565b5080518251146100b65760405162461bcd60e51b815260206004820152601e60248201527f496e76616c696420726563697069656e74732f616c6c6f636174696f6e7300006044820152606401610052565b60008251116100f75760405162461bcd60e51b815260206004820152600d60248201526c4e6f20726563697069656e747360981b6044820152606401610052565b6001600160a01b0380861660a05284811660c05283166080526000805b8351811015610357576000806080516001600160a01b031663d75162c58785815181106101435761014361069c565b60200260200101516040518263ffffffff1660e01b815260040161016791906106b2565b600060405180830381865afa158015610184573d6000803e3d6000fd5b505050506040513d6000823e601f3d908101601f191682016040526101ac91908101906106e5565b9093509150506001600160a01b0382166101fd5760405162461bcd60e51b8152602060048201526012602482015271496e76616c696420756e697665727369747960701b6044820152606401610052565b8061024a5760405162461bcd60e51b815260206004820152601560248201527f556e6976657273697479206e6f742061637469766500000000000000000000006044820152606401610052565b600085848151811061025e5761025e61069c565b6020026020010151116102a85760405162461bcd60e51b815260206004820152601260248201527124b73b30b634b21030b63637b1b0ba34b7b760711b6044820152606401610052565b8483815181106102ba576102ba61069c565b6020026020010151846102cd919061074b565b935060046040518060400160405280846001600160a01b031681526020018786815181106102fd576102fd61069c565b602090810291909101810151909152825460018082018555600094855293829020835160029092020180546001600160a01b0319166001600160a01b03909216919091178155910151908201559290920191506101149050565b5080612710146103a95760405162461bcd60e51b815260206004820152601d60248201527f546f74616c20616c6c6f636174696f6e206d75737420626520313030250000006044820152606401610052565b505050505050610772565b600180546001600160a01b038381166001600160a01b0319831681179093556040519116919082907f8be0079c531659141344cd1fd0a4f28419497f9722a3daafe3b4186f6b6457e090600090a35050565b80516001600160a01b038116811461041d57600080fd5b919050565b634e487b7160e01b600052604160045260246000fd5b604051601f8201601f191681016001600160401b038111828210171561046057610460610422565b604052919050565b60006001600160401b0382111561048157610481610422565b5060051b60200190565b60005b838110156104a657818101518382015260200161048e565b50506000910152565b600082601f8301126104c057600080fd5b81516001600160401b038111156104d9576104d9610422565b6104ec601f8201601f1916602001610438565b81815284602083860101111561050157600080fd5b61051282602083016020870161048b565b949350505050565b600082601f83011261052b57600080fd5b815161053e61053982610468565b610438565b8082825260208201915060208360051b86010192508583111561056057600080fd5b602085015b8381101561057d578051835260209283019201610565565b5095945050505050565b600080600080600060a0868803121561059f57600080fd5b6105a886610406565b94506105b660208701610406565b93506105c460408701610406565b60608701519093506001600160401b038111156105e057600080fd5b8601601f810188136105f157600080fd5b80516105ff61053982610468565b8082825260208201915060208360051b85010192508a83111561062157600080fd5b602084015b838110156106625780516001600160401b0381111561064457600080fd5b6106538d6020838901016104af565b84525060209283019201610626565b5060808a0151909550925050506001600160401b0381111561068357600080fd5b61068f8882890161051a565b9150509295509295909350565b634e487b7160e01b600052603260045260246000fd5b60208152600082518060208401526106d181604085016020870161048b565b601f01601f19169190910160400192915050565b6000806000606084860312156106fa57600080fd5b83516001600160401b0381111561071057600080fd5b61071c868287016104af565b93505061072b60208501610406565b91506040840151801515811461074057600080fd5b809150509250925092565b8082018082111561076c57634e487b7160e01b600052601160045260246000fd5b92915050565b60805160a05160c0516112c56107d2600039600081816102b701526103fb01526000818161026a0152818161042d015281816105380152818161071c01528181610c1501528181610eb80152610ffb0152600061014101526112c56000f3fe608060405234801561001057600080fd5b506004361061010b5760003560e01c80638da5cb5b116100a2578063d1bc76a111610071578063d1bc76a114610233578063e9cbd82214610265578063f14faf6f1461028c578063f2fde38b1461029f578063fa2af9da146102b257600080fd5b80638da5cb5b146101c857806395ee1221146101d9578063c5c4744c146101eb578063ca0cdea8146101f457600080fd5b80635eed3dcb116100de5780635eed3dcb1461018e578063632a9a52146101a15780636de27d27146101a9578063715018a6146101c057600080fd5b80630cf010511461011057806322f3e2d41461011a57806336b1d37f1461013c5780634460d3cf1461017b575b600080fd5b6101186102d9565b005b6007546101279060ff1681565b60405190151581526020015b60405180910390f35b6101637f000000000000000000000000000000000000000000000000000000000000000081565b6040516001600160a01b039091168152602001610133565b610118610189366004611186565b610712565b61016361019c3660046111aa565b61091e565b610118610948565b6101b260065481565b604051908152602001610133565b610118610af9565b6001546001600160a01b0316610163565b60075461012790610100900460ff1681565b6101b260055481565b61021e610202366004611186565b6002602052600090815260409020805460019091015460ff1682565b60408051928352901515602083015201610133565b6102466102413660046111aa565b610b0b565b604080516001600160a01b039093168352602083019190915201610133565b6101637f000000000000000000000000000000000000000000000000000000000000000081565b61011861029a3660046111aa565b610b43565b6101186102ad366004611186565b610d62565b6101637f000000000000000000000000000000000000000000000000000000000000000081565b6102e1610d9d565b6102e9610dca565b60075460ff161580156103045750600754610100900460ff16155b6103455760405162461bcd60e51b815260206004820152600d60248201526c496e76616c696420737461746560981b60448201526064015b60405180910390fd5b6000600554116103895760405162461bcd60e51b815260206004820152600f60248201526e139bc8199d5b991cc81c985a5cd959608a1b604482015260640161033c565b6000612710606460055461039d91906111d9565b6103a791906111f6565b90506000816005546103b99190611218565b905060006127106103cc611b58846111d9565b6103d691906111f6565b905060006103e48284611218565b60405163a9059cbb60e01b81526001600160a01b037f000000000000000000000000000000000000000000000000000000000000000081166004830152602482018790529192507f00000000000000000000000000000000000000000000000000000000000000009091169063a9059cbb906044016020604051808303816000875af1158015610478573d6000803e3d6000fd5b505050506040513d601f19601f8201168201806040525081019061049c919061122b565b6104e85760405162461bcd60e51b815260206004820152601c60248201527f506c6174666f726d20666565207472616e73666572206661696c656400000000604482015260640161033c565b60005b6004548110156106b15760006127106004838154811061050d5761050d61124d565b9060005260206000209060020201600101548561052a91906111d9565b61053491906111f6565b90507f00000000000000000000000000000000000000000000000000000000000000006001600160a01b031663a9059cbb600484815481106105785761057861124d565b600091825260209091206002909102015460405160e083901b6001600160e01b03191681526001600160a01b039091166004820152602481018490526044016020604051808303816000875af11580156105d6573d6000803e3d6000fd5b505050506040513d601f19601f820116820180604052508101906105fa919061122b565b6106465760405162461bcd60e51b815260206004820152601960248201527f526563697069656e74207472616e73666572206661696c656400000000000000604482015260640161033c565b600482815481106106595761065961124d565b6000918252602091829020600290910201546040518381526001600160a01b03909116917f3345dff52f7d4d803cbf38e3ea1336038dbc4bb99a73a70c4d64d32ed47ab635910160405180910390a2506001016104eb565b506007805460ff19166001179055600554604080519182526020820184905281018290527f046c43b5c9acbe08f5c9502b883134201f1eda0c361248c5d58026a870763d0b9060600160405180910390a1505050506107106001600055565b565b61071a610d9d565b7f00000000000000000000000000000000000000000000000000000000000000006001600160a01b0316816001600160a01b03160361079b5760405162461bcd60e51b815260206004820152601c60248201527f43616e6e6f74207265736375652063616d706169676e20746f6b656e00000000604482015260640161033c565b6040516370a0823160e01b81523060048201526000906001600160a01b038316906370a0823190602401602060405180830381865afa1580156107e2573d6000803e3d6000fd5b505050506040513d601f19601f820116820180604052508101906108069190611263565b90506000811161084c5760405162461bcd60e51b81526020600482015260116024820152704e6f7468696e6720746f2072657363756560781b604482015260640161033c565b816001600160a01b031663a9059cbb61086d6001546001600160a01b031690565b6040516001600160e01b031960e084901b1681526001600160a01b039091166004820152602481018490526044016020604051808303816000875af11580156108ba573d6000803e3d6000fd5b505050506040513d601f19601f820116820180604052508101906108de919061122b565b61091a5760405162461bcd60e51b815260206004820152600d60248201526c14995cd8dd594819985a5b1959609a1b604482015260640161033c565b5050565b6003818154811061092e57600080fd5b6000918252602090912001546001600160a01b0316905081565b610950610dca565b60075460ff16801561096a5750600754610100900460ff16155b6109a65760405162461bcd60e51b815260206004820152600d60248201526c496e76616c696420737461746560981b604482015260640161033c565b336000908152600260205260409020546109f05760405162461bcd60e51b815260206004820152600b60248201526a2737ba1030903237b737b960a91b604482015260640161033c565b3360009081526002602052604090206001015460ff1615610a435760405162461bcd60e51b815260206004820152600d60248201526c105b1c9958591e481d9bdd1959609a1b604482015260640161033c565b60055433600090815260026020526040812054909190610a65906127106111d9565b610a6f91906111f6565b905080600654610a7f919061127c565b60065533600081815260026020526040908190206001908101805460ff19169091179055517fa36cc2bebb74db33e9f88110a07ef56e1b31b24b4c4f51b54b1664266e29f45b90610ad39084815260200190565b60405180910390a261138860065410610aee57610aee610e23565b506107106001600055565b610b01610d9d565b610710600061111f565b60048181548110610b1b57600080fd5b6000918252602090912060029091020180546001909101546001600160a01b03909116915082565b610b4b610dca565b60075460ff16158015610b665750600754610100900460ff16155b610bb25760405162461bcd60e51b815260206004820152601c60248201527f46756e64206e6f7420616363657074696e6720646f6e6174696f6e7300000000604482015260640161033c565b60008111610bf35760405162461bcd60e51b815260206004820152600e60248201526d125b9d985b1a5908185b5bdd5b9d60921b604482015260640161033c565b6040516323b872dd60e01b8152336004820152306024820152604481018290527f00000000000000000000000000000000000000000000000000000000000000006001600160a01b0316906323b872dd906064016020604051808303816000875af1158015610c66573d6000803e3d6000fd5b505050506040513d601f19601f82011682018060405250810190610c8a919061122b565b50336000908152600260205260408120549003610ce457600380546001810182556000919091527fc2575a0e9e593c00f959f8c92f12db2869c3395a3b0502d05e2516446f71f85b0180546001600160a01b031916331790555b33600090815260026020526040902054610cff90829061127c565b33600090815260026020526040902055600554610d1d90829061127c565b60055560405181815233907f264f630d9efa0d07053a31163641d9fcc0adafc9d9e76f1c37c2ce3a558d2c529060200160405180910390a2610d5f6001600055565b50565b610d6a610d9d565b6001600160a01b038116610d9457604051631e4fbdf760e01b81526000600482015260240161033c565b610d5f8161111f565b6001546001600160a01b031633146107105760405163118cdaa760e01b815233600482015260240161033c565b600260005403610e1c5760405162461bcd60e51b815260206004820152601f60248201527f5265656e7472616e637947756172643a207265656e7472616e742063616c6c00604482015260640161033c565b6002600055565b60075460ff168015610e3d5750600754610100900460ff16155b610e895760405162461bcd60e51b815260206004820152601e60248201527f496e76616c696420737461746520666f722063616e63656c6c6174696f6e0000604482015260640161033c565b6007805461ffff19166101001790556040516370a0823160e01b81523060048201526000906001600160a01b037f000000000000000000000000000000000000000000000000000000000000000016906370a0823190602401602060405180830381865afa158015610eff573d6000803e3d6000fd5b505050506040513d601f19601f82011682018060405250810190610f239190611263565b905060008111610f6a5760405162461bcd60e51b8152602060048201526012602482015271139bc8199d5b991cc81d1bc81c99599d5b9960721b604482015260640161033c565b60005b6003548110156110f257600060038281548110610f8c57610f8c61124d565b60009182526020808320909101546005546001600160a01b039091168084526002909252604083205491935090610fc390866111d9565b610fcd91906111f6565b905080156110e85760405163a9059cbb60e01b81526001600160a01b038381166004830152602482018390527f0000000000000000000000000000000000000000000000000000000000000000169063a9059cbb906044016020604051808303816000875af1158015611044573d6000803e3d6000fd5b505050506040513d601f19601f82011682018060405250810190611068919061122b565b6110a45760405162461bcd60e51b815260206004820152600d60248201526c1499599d5b990819985a5b1959609a1b604482015260640161033c565b816001600160a01b03167fa171b6942063c6f2800ce40a780edce37baa2b618571b11eedd1e69e626e7d76826040516110df91815260200190565b60405180910390a25b5050600101610f6d565b506040517fd1f7acc3d0499dc8dc9e64bc57e4fd2661517526541354d02a1e9840dd6d5c7890600090a150565b600180546001600160a01b038381166001600160a01b0319831681179093556040519116919082907f8be0079c531659141344cd1fd0a4f28419497f9722a3daafe3b4186f6b6457e090600090a35050565b6001600160a01b0381168114610d5f57600080fd5b60006020828403121561119857600080fd5b81356111a381611171565b9392505050565b6000602082840312156111bc57600080fd5b5035919050565b634e487b7160e01b600052601160045260246000fd5b80820281158282048414176111f0576111f06111c3565b92915050565b60008261121357634e487b7160e01b600052601260045260246000fd5b500490565b818103818111156111f0576111f06111c3565b60006020828403121561123d57600080fd5b815180151581146111a357600080fd5b634e487b7160e01b600052603260045260246000fd5b60006020828403121561127557600080fd5b5051919050565b808201808211156111f0576111f06111c356fea26469706673582212206e18832985eb87060134522a1ffd88337e817e7f5c3aae7d1746a585b690b80364736f6c634300081c0033","linkReferences":{}},"methodIdentifiers":{"donate(uint256)":"f14faf6f","donorList(uint256)":"5eed3dcb","donors(address)":"ca0cdea8","isActive()":"22f3e2d4","isCancelled()":"95ee1221","owner()":"8da5cb5b","platformWallet()":"fa2af9da","recipients(uint256)":"d1bc76a1","renounceOwnership()":"715018a6","rescueToken(address)":"4460d3cf","stablecoin()":"e9cbd822","startFunding()":"0cf01051","totalRaised()":"c5c4744c","totalVotingWeight()":"6de27d27","transferOwnership(address)":"f2fde38b","universityRegistry()":"36b1d37f","vote()":"632a9a52"},"id":0}