{"abi":[{"type":"constructor","inputs":[{"name":"_stablecoin","type":"address","internalType":"address"},{"name":"_platformWallet","type":"address","internalType":"address"},{"name":"_registry","type":"address","internalType":"address"},{"name":"_sablier","type":"address","internalType":"address"},{"name":"_universitySymbols","type":"string[]","internalType":"string[]"},{"name":"_allocations","type":"uint256[]","internalType":"uint256[]"}],"stateMutability":"nonpayable"},{"type":"function","name":"donate","inputs":[{"name":"amount","type":"uint256","internalType":"uint256"}],"outputs":[],"stateMutability":"nonpayable"},{"type":"function","name":"donorList","inputs":[{"name":"","type":"uint256","internalType":"uint256"}],"outputs":[{"name":"","type":"address","internalType":"address"}],"stateMutability":"view"},{"type":"function","name":"donors","inputs":[{"name":"","type":"address","internalType":"address"}],"outputs":[{"name":"amount","type":"uint256","internalType":"uint256"},{"name":"hasVoted","type":"bool","internalType":"bool"}],"stateMutability":"view"},{"type":"function","name":"getVotingWeight","inputs":[{"name":"donor","type":"address","internalType":"address"}],"outputs":[{"name":"","type":"uint256","internalType":"uint256"}],"stateMutability":"view"},{"type":"function","name":"isCancelled","inputs":[],"outputs":[{"name":"","type":"bool","internalType":"bool"}],"stateMutability":"view"},{"type":"function","name":"isStreaming","inputs":[],"outputs":[{"name":"","type":"bool","internalType":"bool"}],"stateMutability":"view"},{"type":"function","name":"owner","inputs":[],"outputs":[{"name":"","type":"address","internalType":"address"}],"stateMutability":"view"},{"type":"function","name":"platformWallet","inputs":[],"outputs":[{"name":"","type":"address","internalType":"address"}],"stateMutability":"view"},{"type":"function","name":"recipients","inputs":[{"name":"","type":"uint256","internalType":"uint256"}],"outputs":[{"name":"wallet","type":"address","internalType":"address"},{"name":"allocation","type":"uint256","internalType":"uint256"},{"name":"streamId","type":"uint256","internalType":"uint256"}],"stateMutability":"view"},{"type":"function","name":"renounceOwnership","inputs":[],"outputs":[],"stateMutability":"nonpayable"},{"type":"function","name":"sablier","inputs":[],"outputs":[{"name":"","type":"address","internalType":"contract ISablierV2LockupLinear"}],"stateMutability":"view"},{"type":"function","name":"stablecoin","inputs":[],"outputs":[{"name":"","type":"address","internalType":"contract IERC20"}],"stateMutability":"view"},{"type":"function","name":"startStreaming","inputs":[],"outputs":[],"stateMutability":"nonpayable"},{"type":"function","name":"totalRaised","inputs":[],"outputs":[{"name":"","type":"uint256","internalType":"uint256"}],"stateMutability":"view"},{"type":"function","name":"totalVotingWeight","inputs":[],"outputs":[{"name":"","type":"uint256","internalType":"uint256"}],"stateMutability":"view"},{"type":"function","name":"transferOwnership","inputs":[{"name":"newOwner","type":"address","internalType":"address"}],"outputs":[],"stateMutability":"nonpayable"},{"type":"function","name":"universityRegistry","inputs":[],"outputs":[{"name":"","type":"address","internalType":"contract UniversityRegistry"}],"stateMutability":"view"},{"type":"function","name":"vote","inputs":[],"outputs":[],"stateMutability":"nonpayable"},{"type":"event","name":"DonationReceived","inputs":[{"name":"donor","type":"address","indexed":true,"internalType":"address"},{"name":"amount","type":"uint256","indexed":false,"internalType":"uint256"}],"anonymous":false},{"type":"event","name":"OwnershipTransferred","inputs":[{"name":"previousOwner","type":"address","indexed":true,"internalType":"address"},{"name":"newOwner","type":"address","indexed":true,"internalType":"address"}],"anonymous":false},{"type":"event","name":"RefundIssued","inputs":[{"name":"donor","type":"address","indexed":true,"internalType":"address"},{"name":"amount","type":"uint256","indexed":false,"internalType":"uint256"}],"anonymous":false},{"type":"event","name":"StreamStarted","inputs":[{"name":"recipient","type":"address","indexed":true,"internalType":"address"},{"name":"streamId","type":"uint256","indexed":false,"internalType":"uint256"},{"name":"amount","type":"uint256","indexed":false,"internalType":"uint256"}],"anonymous":false},{"type":"event","name":"StreamsCancelled","inputs":[],"anonymous":false},{"type":"event","name":"VoteCast","inputs":[{"name":"donor","type":"address","indexed":true,"internalType":"address"},{"name":"weight","type":"uint256","indexed":false,"internalType":"uint256"}],"anonymous":false},{"type":"error","name":"OwnableInvalidOwner","inputs":[{"name":"owner","type":"address","internalType":"address"}]},{"type":"error","name":"OwnableUnauthorizedAccount","inputs":[{"name":"account","type":"address","internalType":"address"}]}],"bytecode":{"object":"0x61010060405234801561001157600080fd5b50604051611c87380380611c87833981016040819052610030916105bc565b6001600055338061005c57604051631e4fbdf760e01b8152600060048201526024015b60405180910390fd5b610065816103d4565b5080518251146100b75760405162461bcd60e51b815260206004820152601b60248201527f496e76616c69642073796d626f6c732f616c6c6f636174696f6e7300000000006044820152606401610053565b60008251116100f85760405162461bcd60e51b815260206004820152600d60248201526c4e6f20726563697069656e747360981b6044820152606401610053565b6001600160a01b0380871660805285811660a05283811660c052841660e0526000805b83518110156103765760008060e0516001600160a01b031663d75162c587858151811061014a5761014a6106e0565b60200260200101516040518263ffffffff1660e01b815260040161016e91906106f6565b600060405180830381865afa15801561018b573d6000803e3d6000fd5b505050506040513d6000823e601f3d908101601f191682016040526101b39190810190610729565b9093509150506001600160a01b0382166102045760405162461bcd60e51b8152602060048201526012602482015271496e76616c696420756e697665727369747960701b6044820152606401610053565b806102515760405162461bcd60e51b815260206004820152601560248201527f556e6976657273697479206e6f742061637469766500000000000000000000006044820152606401610053565b6000858481518110610265576102656106e0565b6020026020010151116102af5760405162461bcd60e51b815260206004820152601260248201527124b73b30b634b21030b63637b1b0ba34b7b760711b6044820152606401610053565b6102db8584815181106102c4576102c46106e0565b60200260200101518561042660201b90919060201c565b935060046040518060600160405280846001600160a01b0316815260200187868151811061030b5761030b6106e0565b6020908102919091018101518252600091810182905283546001808201865594835291819020835160039093020180546001600160a01b0319166001600160a01b039093169290921782558201518184015560409091015160029091015592909201915061011b9050565b5080612710146103c85760405162461bcd60e51b815260206004820152601d60248201527f546f74616c20616c6c6f636174696f6e206d75737420626520313030250000006044820152606401610053565b505050505050506107b0565b600180546001600160a01b038381166001600160a01b0319831681179093556040519116919082907f8be0079c531659141344cd1fd0a4f28419497f9722a3daafe3b4186f6b6457e090600090a35050565b6000610432828461078f565b90505b92915050565b80516001600160a01b038116811461045257600080fd5b919050565b634e487b7160e01b600052604160045260246000fd5b604051601f8201601f191681016001600160401b038111828210171561049557610495610457565b604052919050565b60006001600160401b038211156104b6576104b6610457565b5060051b60200190565b60005b838110156104db5781810151838201526020016104c3565b50506000910152565b600082601f8301126104f557600080fd5b81516001600160401b0381111561050e5761050e610457565b610521601f8201601f191660200161046d565b81815284602083860101111561053657600080fd5b6105478260208301602087016104c0565b949350505050565b600082601f83011261056057600080fd5b815161057361056e8261049d565b61046d565b8082825260208201915060208360051b86010192508583111561059557600080fd5b602085015b838110156105b257805183526020928301920161059a565b5095945050505050565b60008060008060008060c087890312156105d557600080fd5b6105de8761043b565b95506105ec6020880161043b565b94506105fa6040880161043b565b93506106086060880161043b565b60808801519093506001600160401b0381111561062457600080fd5b8701601f8101891361063557600080fd5b805161064361056e8261049d565b8082825260208201915060208360051b85010192508b83111561066557600080fd5b602084015b838110156106a65780516001600160401b0381111561068857600080fd5b6106978e6020838901016104e4565b8452506020928301920161066a565b5060a08b0151909550925050506001600160401b038111156106c757600080fd5b6106d389828a0161054f565b9150509295509295509295565b634e487b7160e01b600052603260045260246000fd5b60208152600082518060208401526107158160408501602087016104c0565b601f01601f19169190910160400192915050565b60008060006060848603121561073e57600080fd5b83516001600160401b0381111561075457600080fd5b610760868287016104e4565b93505061076f6020850161043b565b91506040840151801515811461078457600080fd5b809150509250925092565b8082018082111561043557634e487b7160e01b600052601160045260246000fd5b60805160a05160c05160e05161144a61083d6000396000818161012001526106280152600081816101640152818161088901528181610a050152610ed40152600081816102ef0152610784015260008181610295015281816107b6015281816108bb0152818161098b01528181610c0a01528181610e2b01528181610fbb01526110ee015261144a6000f3fe608060405234801561001057600080fd5b50600436106101165760003560e01c8063ca0cdea8116100a2578063e9cbd82211610071578063e9cbd82214610290578063f14faf6f146102b7578063f2fde38b146102ca578063f8ad1c40146102dd578063fa2af9da146102ea57600080fd5b8063ca0cdea8146101fe578063d1bc76a11461023d578063d5da24b914610275578063d865f1d61461028857600080fd5b80636de27d27116100e95780636de27d27146101a3578063715018a6146101ba5780638da5cb5b146101c257806395ee1221146101d3578063c5c4744c146101f557600080fd5b806336b1d37f1461011b578063482879aa1461015f5780635eed3dcb14610186578063632a9a5214610199575b600080fd5b6101427f000000000000000000000000000000000000000000000000000000000000000081565b6040516001600160a01b0390911681526020015b60405180910390f35b6101427f000000000000000000000000000000000000000000000000000000000000000081565b610142610194366004611255565b610311565b6101a161033b565b005b6101ac60065481565b604051908152602001610156565b6101a16104d2565b6001546001600160a01b0316610142565b6007546101e590610100900460ff1681565b6040519015158152602001610156565b6101ac60055481565b61022861020c36600461126e565b6002602052600090815260409020805460019091015460ff1682565b60408051928352901515602083015201610156565b61025061024b366004611255565b6104e4565b604080516001600160a01b039094168452602084019290925290820152606001610156565b6101ac61028336600461126e565b610521565b6101a161056e565b6101427f000000000000000000000000000000000000000000000000000000000000000081565b6101a16102c5366004611255565b610b38565b6101a16102d836600461126e565b610d55565b6007546101e59060ff1681565b6101427f000000000000000000000000000000000000000000000000000000000000000081565b6003818154811061032157600080fd5b6000918252602090912001546001600160a01b0316905081565b610343610d90565b60075460ff16801561035d5750600754610100900460ff16155b61039e5760405162461bcd60e51b815260206004820152600d60248201526c496e76616c696420737461746560981b60448201526064015b60405180910390fd5b336000908152600260205260409020546103e85760405162461bcd60e51b815260206004820152600b60248201526a2737ba1030903237b737b960a91b6044820152606401610395565b3360009081526002602052604090206001015460ff161561043b5760405162461bcd60e51b815260206004820152600d60248201526c105b1c9958591e481d9bdd1959609a1b6044820152606401610395565b600061044633610521565b6006549091506104569082610de9565b60065533600081815260026020526040908190206001908101805460ff19169091179055517fa36cc2bebb74db33e9f88110a07ef56e1b31b24b4c4f51b54b1664266e29f45b906104aa9084815260200190565b60405180910390a2611388600654106104c5576104c5610dfc565b506104d06001600055565b565b6104da6111b2565b6104d060006111df565b600481815481106104f457600080fd5b60009182526020909120600390910201805460018201546002909201546001600160a01b03909116925083565b600060055460000361053557506000919050565b6005546001600160a01b038316600090815260026020526040902054610568919061056290612710611231565b9061123d565b92915050565b6105766111b2565b61057e610d90565b60075460ff161580156105995750600754610100900460ff16155b6105d55760405162461bcd60e51b815260206004820152600d60248201526c496e76616c696420737461746560981b6044820152606401610395565b6000600554116106195760405162461bcd60e51b815260206004820152600f60248201526e139bc8199d5b991cc81c985a5cd959608a1b6044820152606401610395565b60005b600454811015610735577f00000000000000000000000000000000000000000000000000000000000000006001600160a01b031663af71279a6004838154811061066857610668611297565b600091825260209091206003909102015460405160e083901b6001600160e01b03191681526001600160a01b039091166004820152602401602060405180830381865afa1580156106bd573d6000803e3d6000fd5b505050506040513d601f19601f820116820180604052508101906106e191906112ad565b61072d5760405162461bcd60e51b815260206004820152601a60248201527f556e6976657273697479206e6f206c6f6e6765722076616c69640000000000006044820152606401610395565b60010161061c565b506000610754612710610562606460055461123190919063ffffffff16565b9050600061076d8260055461124990919063ffffffff16565b60405163a9059cbb60e01b81526001600160a01b037f000000000000000000000000000000000000000000000000000000000000000081166004830152602482018590529192507f00000000000000000000000000000000000000000000000000000000000000009091169063a9059cbb906044016020604051808303816000875af1158015610801573d6000803e3d6000fd5b505050506040513d601f19601f8201168201806040525081019061082591906112ad565b5060005b600454811015610b1e5760006108726127106105626004858154811061085157610851611297565b9060005260206000209060030201600101548661123190919063ffffffff16565b60405163095ea7b360e01b81526001600160a01b037f000000000000000000000000000000000000000000000000000000000000000081166004830152602482018390529192507f00000000000000000000000000000000000000000000000000000000000000009091169063095ea7b3906044016020604051808303816000875af1158015610906573d6000803e3d6000fd5b505050506040513d601f19601f8201168201806040525081019061092a91906112ad565b506000604051806101000160405280306001600160a01b031681526020016004858154811061095b5761095b611297565b600091825260208083206003909202909101546001600160a01b0390811684526001600160801b038716848301527f0000000000000000000000000000000000000000000000000000000000000000811660408086019190915260016060860152608085018490528051808201825284815262278d008185015260a08601528051808201825284815292830184905260c0909401919091529151632ac59f3360e21b8152929350917f00000000000000000000000000000000000000000000000000000000000000009091169063ab167ccc90610a3c9085906004016112cf565b6020604051808303816000875af1158015610a5b573d6000803e3d6000fd5b505050506040513d601f19601f82011682018060405250810190610a7f9190611386565b90508060048581548110610a9557610a95611297565b90600052602060002090600302016002018190555060048481548110610abd57610abd611297565b600091825260209182902060039091020154604080518481529283018690526001600160a01b03909116917fa62b8b79cdd1fbbcd137b5ac2c6b2d503face9d66f7ec545c345938c7d53437b910160405180910390a2505050600101610829565b50506007805460ff19166001179055506104d06001600055565b610b40610d90565b60075460ff16158015610b5b5750600754610100900460ff16155b610ba75760405162461bcd60e51b815260206004820152601c60248201527f46756e64206e6f7420616363657074696e6720646f6e6174696f6e73000000006044820152606401610395565b60008111610be85760405162461bcd60e51b815260206004820152600e60248201526d125b9d985b1a5908185b5bdd5b9d60921b6044820152606401610395565b6040516323b872dd60e01b8152336004820152306024820152604481018290527f00000000000000000000000000000000000000000000000000000000000000006001600160a01b0316906323b872dd906064016020604051808303816000875af1158015610c5b573d6000803e3d6000fd5b505050506040513d601f19601f82011682018060405250810190610c7f91906112ad565b50336000908152600260205260408120549003610cd957600380546001810182556000919091527fc2575a0e9e593c00f959f8c92f12db2869c3395a3b0502d05e2516446f71f85b0180546001600160a01b031916331790555b33600090815260026020526040902054610cf39082610de9565b33600090815260026020526040902055600554610d109082610de9565b60055560405181815233907f264f630d9efa0d07053a31163641d9fcc0adafc9d9e76f1c37c2ce3a558d2c529060200160405180910390a2610d526001600055565b50565b610d5d6111b2565b6001600160a01b038116610d8757604051631e4fbdf760e01b815260006004820152602401610395565b610d52816111df565b600260005403610de25760405162461bcd60e51b815260206004820152601f60248201527f5265656e7472616e637947756172643a207265656e7472616e742063616c6c006044820152606401610395565b6002600055565b6000610df582846113b5565b9392505050565b6007805461ffff19166101001790556040516370a0823160e01b81523060048201526000906001600160a01b037f000000000000000000000000000000000000000000000000000000000000000016906370a0823190602401602060405180830381865afa158015610e72573d6000803e3d6000fd5b505050506040513d601f19601f82011682018060405250810190610e969190611386565b905060005b600454811015610f7957600060048281548110610eba57610eba611297565b9060005260206000209060030201600201541115610f71577f00000000000000000000000000000000000000000000000000000000000000006001600160a01b03166340e58ee560048381548110610f1457610f14611297565b9060005260206000209060030201600201546040518263ffffffff1660e01b8152600401610f4491815260200190565b600060405180830381600087803b158015610f5e57600080fd5b505af1925050508015610f6f575060015b505b600101610e9b565b506040517f585a08ec608f045f58d45a2e0e91683fb29553b00b4b951eb61d38e3887dac3a90600090a16040516370a0823160e01b81523060048201526000907f00000000000000000000000000000000000000000000000000000000000000006001600160a01b0316906370a0823190602401602060405180830381865afa15801561100a573d6000803e3d6000fd5b505050506040513d601f19601f8201168201806040525081019061102e9190611386565b9050600061103c8284611249565b905080156111ad5760005b6003548110156111ab5760006003828154811061106657611066611297565b60009182526020808320909101546001600160a01b03168083526002909152604090912054909150156111a2576005546001600160a01b03821660009081526002602052604081205490916110c091610562908790611231565b905080156111a05760405163a9059cbb60e01b81526001600160a01b038381166004830152602482018390527f0000000000000000000000000000000000000000000000000000000000000000169063a9059cbb906044016020604051808303816000875af1158015611137573d6000803e3d6000fd5b505050506040513d601f19601f8201168201806040525081019061115b91906112ad565b50816001600160a01b03167fa171b6942063c6f2800ce40a780edce37baa2b618571b11eedd1e69e626e7d768260405161119791815260200190565b60405180910390a25b505b50600101611047565b505b505050565b6001546001600160a01b031633146104d05760405163118cdaa760e01b8152336004820152602401610395565b600180546001600160a01b038381166001600160a01b0319831681179093556040519116919082907f8be0079c531659141344cd1fd0a4f28419497f9722a3daafe3b4186f6b6457e090600090a35050565b6000610df582846113c8565b6000610df582846113df565b6000610df58284611401565b60006020828403121561126757600080fd5b5035919050565b60006020828403121561128057600080fd5b81356001600160a01b0381168114610df557600080fd5b634e487b7160e01b600052603260045260246000fd5b6000602082840312156112bf57600080fd5b81518015158114610df557600080fd5b81516001600160a01b0390811682526020808401518216908301526040808401516001600160801b03169083015260608084015191821690830152610140820190506080830151611324608084018215159052565b5060a083015161133860a084018215159052565b5060c083015161135f60c0840182805164ffffffffff908116835260209182015116910152565b5060e0929092015180516001600160a01b0316610100830152602001516101209091015290565b60006020828403121561139857600080fd5b5051919050565b634e487b7160e01b600052601160045260246000fd5b808201808211156105685761056861139f565b80820281158282048414176105685761056861139f565b6000826113fc57634e487b7160e01b600052601260045260246000fd5b500490565b818103818111156105685761056861139f56fea2646970667358221220a02d77c416c83b4fec22bef4784ea368a83b00f73cb2b9bde3e990ff087f7e1764736f6c634300081c0033","linkReferences":{}},"methodIdentifiers":{"donate(uint256)":"f14faf6f","donorList(uint256)":"5eed3dcb","donors(address)":"ca0cdea8","getVotingWeight(address)":"d5da24b9","isCancelled()":"95ee1221","isStreaming()":"f8ad1c40","owner()":"8da5cb5b","platformWallet()":"fa2af9da","recipients(uint256)":"d1bc76a1","renounceOwnership()":"715018a6","sablier()":"482879aa","stablecoin()":"e9cbd822","startStreaming()":"d865f1d6","totalRaised()":"c5c4744c","totalVotingWeight()":"6de27d27","transferOwnership(address)":"f2fde38b","universityRegistry()":"36b1d37f","vote()":"632a9a52"},"id":0}